{
  "_format": "hh-sol-artifact-1",
  "contractName": "MarketFactory",
  "sourceName": "contracts/MarketFactory.sol",
  "abi": [
    {
      "inputs": [],
      "stateMutability": "nonpayable",
      "type": "constructor"
    },
    {
      "anonymous": false,
      "inputs": [
        {
          "indexed": true,
          "internalType": "uint256",
          "name": "marketId",
          "type": "uint256"
        },
        {
          "indexed": false,
          "internalType": "bool",
          "name": "finalOutcome",
          "type": "bool"
        }
      ],
      "name": "DisputeFinalized",
      "type": "event"
    },
    {
      "anonymous": false,
      "inputs": [
        {
          "indexed": true,
          "internalType": "uint256",
          "name": "marketId",
          "type": "uint256"
        },
        {
          "indexed": true,
          "internalType": "address",
          "name": "voter",
          "type": "address"
        },
        {
          "indexed": false,
          "internalType": "bool",
          "name": "vote",
          "type": "bool"
        },
        {
          "indexed": false,
          "internalType": "uint256",
          "name": "weight",
          "type": "uint256"
        }
      ],
      "name": "DisputeVoteCast",
      "type": "event"
    },
    {
      "anonymous": false,
      "inputs": [
        {
          "indexed": true,
          "internalType": "uint256",
          "name": "marketId",
          "type": "uint256"
        },
        {
          "indexed": false,
          "internalType": "string",
          "name": "title",
          "type": "string"
        },
        {
          "indexed": false,
          "internalType": "uint256",
          "name": "expiryTimestamp",
          "type": "uint256"
        }
      ],
      "name": "MarketCreated",
      "type": "event"
    },
    {
      "anonymous": false,
      "inputs": [
        {
          "indexed": true,
          "internalType": "uint256",
          "name": "marketId",
          "type": "uint256"
        },
        {
          "indexed": false,
          "internalType": "uint256",
          "name": "disputeEndTimestamp",
          "type": "uint256"
        }
      ],
      "name": "MarketDisputed",
      "type": "event"
    },
    {
      "anonymous": false,
      "inputs": [
        {
          "indexed": true,
          "internalType": "uint256",
          "name": "marketId",
          "type": "uint256"
        }
      ],
      "name": "MarketExpired",
      "type": "event"
    },
    {
      "anonymous": false,
      "inputs": [
        {
          "indexed": true,
          "internalType": "uint256",
          "name": "marketId",
          "type": "uint256"
        },
        {
          "indexed": false,
          "internalType": "bool",
          "name": "outcome",
          "type": "bool"
        },
        {
          "indexed": false,
          "internalType": "uint256",
          "name": "settlementTimestamp",
          "type": "uint256"
        }
      ],
      "name": "MarketResolved",
      "type": "event"
    },
    {
      "anonymous": false,
      "inputs": [
        {
          "indexed": true,
          "internalType": "uint256",
          "name": "marketId",
          "type": "uint256"
        },
        {
          "indexed": true,
          "internalType": "address",
          "name": "trader",
          "type": "address"
        },
        {
          "indexed": false,
          "internalType": "uint256",
          "name": "yesShares",
          "type": "uint256"
        },
        {
          "indexed": false,
          "internalType": "uint256",
          "name": "noShares",
          "type": "uint256"
        }
      ],
      "name": "PositionUpdated",
      "type": "event"
    },
    {
      "anonymous": false,
      "inputs": [
        {
          "indexed": true,
          "internalType": "uint256",
          "name": "marketId",
          "type": "uint256"
        },
        {
          "indexed": true,
          "internalType": "address",
          "name": "claimant",
          "type": "address"
        },
        {
          "indexed": false,
          "internalType": "uint256",
          "name": "amountClaimed",
          "type": "uint256"
        }
      ],
      "name": "RewardsClaimed",
      "type": "event"
    },
    {
      "anonymous": false,
      "inputs": [
        {
          "indexed": true,
          "internalType": "uint256",
          "name": "marketId",
          "type": "uint256"
        },
        {
          "indexed": true,
          "internalType": "address",
          "name": "trader",
          "type": "address"
        },
        {
          "indexed": false,
          "internalType": "bool",
          "name": "position",
          "type": "bool"
        },
        {
          "indexed": false,
          "internalType": "uint256",
          "name": "amountSpent",
          "type": "uint256"
        },
        {
          "indexed": false,
          "internalType": "uint256",
          "name": "sharesMinted",
          "type": "uint256"
        },
        {
          "indexed": false,
          "internalType": "uint256",
          "name": "newYesOdds",
          "type": "uint256"
        },
        {
          "indexed": false,
          "internalType": "uint256",
          "name": "newNoOdds",
          "type": "uint256"
        }
      ],
      "name": "TradeExecuted",
      "type": "event"
    },
    {
      "inputs": [
        {
          "internalType": "address",
          "name": "_guardian",
          "type": "address"
        }
      ],
      "name": "addGuardian",
      "outputs": [],
      "stateMutability": "nonpayable",
      "type": "function"
    },
    {
      "inputs": [
        {
          "internalType": "uint256",
          "name": "marketId",
          "type": "uint256"
        },
        {
          "internalType": "bool",
          "name": "position",
          "type": "bool"
        }
      ],
      "name": "buyShares",
      "outputs": [],
      "stateMutability": "payable",
      "type": "function"
    },
    {
      "inputs": [
        {
          "internalType": "uint256",
          "name": "marketId",
          "type": "uint256"
        }
      ],
      "name": "claimRewards",
      "outputs": [],
      "stateMutability": "nonpayable",
      "type": "function"
    },
    {
      "inputs": [],
      "name": "closeExpiredMarkets",
      "outputs": [],
      "stateMutability": "nonpayable",
      "type": "function"
    },
    {
      "inputs": [
        {
          "internalType": "string",
          "name": "_title",
          "type": "string"
        },
        {
          "internalType": "string",
          "name": "_category",
          "type": "string"
        },
        {
          "internalType": "uint256",
          "name": "_expiry",
          "type": "uint256"
        },
        {
          "internalType": "string",
          "name": "_creator",
          "type": "string"
        },
        {
          "internalType": "uint256",
          "name": "_confidence",
          "type": "uint256"
        }
      ],
      "name": "createMarket",
      "outputs": [
        {
          "internalType": "uint256",
          "name": "",
          "type": "uint256"
        }
      ],
      "stateMutability": "nonpayable",
      "type": "function"
    },
    {
      "inputs": [
        {
          "internalType": "uint256",
          "name": "marketId",
          "type": "uint256"
        }
      ],
      "name": "disputeMarket",
      "outputs": [],
      "stateMutability": "nonpayable",
      "type": "function"
    },
    {
      "inputs": [
        {
          "internalType": "uint256",
          "name": "",
          "type": "uint256"
        },
        {
          "internalType": "address",
          "name": "",
          "type": "address"
        }
      ],
      "name": "disputeVoted",
      "outputs": [
        {
          "internalType": "bool",
          "name": "",
          "type": "bool"
        }
      ],
      "stateMutability": "view",
      "type": "function"
    },
    {
      "inputs": [
        {
          "internalType": "uint256",
          "name": "",
          "type": "uint256"
        }
      ],
      "name": "disputes",
      "outputs": [
        {
          "internalType": "uint256",
          "name": "disputeEndTimestamp",
          "type": "uint256"
        },
        {
          "internalType": "uint256",
          "name": "yesVotes",
          "type": "uint256"
        },
        {
          "internalType": "uint256",
          "name": "noVotes",
          "type": "uint256"
        },
        {
          "internalType": "bool",
          "name": "finalized",
          "type": "bool"
        }
      ],
      "stateMutability": "view",
      "type": "function"
    },
    {
      "inputs": [
        {
          "internalType": "uint256",
          "name": "marketId",
          "type": "uint256"
        },
        {
          "internalType": "bool",
          "name": "outcome",
          "type": "bool"
        }
      ],
      "name": "emergencyResolveMarket",
      "outputs": [],
      "stateMutability": "nonpayable",
      "type": "function"
    },
    {
      "inputs": [
        {
          "internalType": "uint256",
          "name": "marketId",
          "type": "uint256"
        }
      ],
      "name": "finalizeDispute",
      "outputs": [],
      "stateMutability": "nonpayable",
      "type": "function"
    },
    {
      "inputs": [
        {
          "internalType": "uint256",
          "name": "marketId",
          "type": "uint256"
        },
        {
          "internalType": "bool",
          "name": "position",
          "type": "bool"
        }
      ],
      "name": "getOdds",
      "outputs": [
        {
          "internalType": "uint256",
          "name": "",
          "type": "uint256"
        }
      ],
      "stateMutability": "view",
      "type": "function"
    },
    {
      "inputs": [
        {
          "internalType": "address",
          "name": "",
          "type": "address"
        }
      ],
      "name": "guardians",
      "outputs": [
        {
          "internalType": "bool",
          "name": "",
          "type": "bool"
        }
      ],
      "stateMutability": "view",
      "type": "function"
    },
    {
      "inputs": [],
      "name": "marketCount",
      "outputs": [
        {
          "internalType": "uint256",
          "name": "",
          "type": "uint256"
        }
      ],
      "stateMutability": "view",
      "type": "function"
    },
    {
      "inputs": [
        {
          "internalType": "uint256",
          "name": "",
          "type": "uint256"
        }
      ],
      "name": "markets",
      "outputs": [
        {
          "internalType": "uint256",
          "name": "id",
          "type": "uint256"
        },
        {
          "internalType": "string",
          "name": "title",
          "type": "string"
        },
        {
          "internalType": "string",
          "name": "category",
          "type": "string"
        },
        {
          "internalType": "uint256",
          "name": "expiryTimestamp",
          "type": "uint256"
        },
        {
          "internalType": "string",
          "name": "creator",
          "type": "string"
        },
        {
          "internalType": "uint256",
          "name": "confidence",
          "type": "uint256"
        },
        {
          "internalType": "enum MarketFactory.MarketStatus",
          "name": "status",
          "type": "uint8"
        },
        {
          "internalType": "bool",
          "name": "resolvedOutcome",
          "type": "bool"
        },
        {
          "internalType": "uint256",
          "name": "settlementTimestamp",
          "type": "uint256"
        },
        {
          "internalType": "string",
          "name": "transactionHash",
          "type": "string"
        },
        {
          "internalType": "uint256",
          "name": "totalLiquidity",
          "type": "uint256"
        },
        {
          "internalType": "uint256",
          "name": "yesSharesPool",
          "type": "uint256"
        },
        {
          "internalType": "uint256",
          "name": "noSharesPool",
          "type": "uint256"
        }
      ],
      "stateMutability": "view",
      "type": "function"
    },
    {
      "inputs": [],
      "name": "owner",
      "outputs": [
        {
          "internalType": "address",
          "name": "",
          "type": "address"
        }
      ],
      "stateMutability": "view",
      "type": "function"
    },
    {
      "inputs": [
        {
          "internalType": "address",
          "name": "_guardian",
          "type": "address"
        }
      ],
      "name": "removeGuardian",
      "outputs": [],
      "stateMutability": "nonpayable",
      "type": "function"
    },
    {
      "inputs": [
        {
          "internalType": "uint256",
          "name": "marketId",
          "type": "uint256"
        },
        {
          "internalType": "bool",
          "name": "outcome",
          "type": "bool"
        }
      ],
      "name": "resolveMarket",
      "outputs": [],
      "stateMutability": "nonpayable",
      "type": "function"
    },
    {
      "inputs": [
        {
          "internalType": "uint256",
          "name": "",
          "type": "uint256"
        },
        {
          "internalType": "address",
          "name": "",
          "type": "address"
        }
      ],
      "name": "rewardsClaimed",
      "outputs": [
        {
          "internalType": "bool",
          "name": "",
          "type": "bool"
        }
      ],
      "stateMutability": "view",
      "type": "function"
    },
    {
      "inputs": [
        {
          "internalType": "uint256",
          "name": "marketId",
          "type": "uint256"
        }
      ],
      "name": "sellShares",
      "outputs": [],
      "stateMutability": "nonpayable",
      "type": "function"
    },
    {
      "inputs": [
        {
          "internalType": "uint256",
          "name": "",
          "type": "uint256"
        },
        {
          "internalType": "address",
          "name": "",
          "type": "address"
        }
      ],
      "name": "userNoShares",
      "outputs": [
        {
          "internalType": "uint256",
          "name": "",
          "type": "uint256"
        }
      ],
      "stateMutability": "view",
      "type": "function"
    },
    {
      "inputs": [
        {
          "internalType": "uint256",
          "name": "",
          "type": "uint256"
        },
        {
          "internalType": "address",
          "name": "",
          "type": "address"
        }
      ],
      "name": "userYesShares",
      "outputs": [
        {
          "internalType": "uint256",
          "name": "",
          "type": "uint256"
        }
      ],
      "stateMutability": "view",
      "type": "function"
    },
    {
      "inputs": [
        {
          "internalType": "uint256",
          "name": "marketId",
          "type": "uint256"
        },
        {
          "internalType": "bool",
          "name": "voteOutcome",
          "type": "bool"
        }
      ],
      "name": "voteOnDispute",
      "outputs": [],
      "stateMutability": "nonpayable",
      "type": "function"
    }
  ],
  "bytecode": "0x6080806040523461004457600580546001600160a01b031916339081179091556000908152600360205260409020805460ff1916600117905561227b908161004a8239f35b600080fdfe608080604052600436101561001357600080fd5b60003560e01c9081630633b14a14611d645750806308fa40f914611d175780630962ef79146118fd5780634ba8ae81146116985780634ff055b6146115d1578063564a565d1461157e57806356989a83146113af57806357bde44614611288578063714041561461123c5780638878c048146111f45780638da5cb5b146111cb5780638ff755e9146111aa578063905d458d14610ab65780639a835e9114610a695780639d53659714610a21578063a4f5df1214610833578063a526d83b146107e4578063b1283e77146106ca578063c971b1c31461049b578063d1cd33261461037a578063eb7177ee146101345763ec9790821461011157600080fd5b3461012f57600036600319011261012f576020600454604051908152f35b600080fd5b61013d36611dcb565b908060005260209160008352604060002061015a81541515611feb565b60ff600682015416600481101561036457610175901561207b565b341561031f57610184836120fe565b82156102be57606434023481046064036102a8576009916101a4916120de565b918460005260068652604060002033600052865260406000206101c8848254611fde565b9055600a81016101d9848254611fde565b90555b016101e8348254611fde565b90556101f3836120fe565b8060640391606483116102a85760405193151584523486850152604084015260608301526080820152817f8078c17f8e63fc630d3358bd26476aa8b80c43c97cadb2eb763eb7b9a628094260a03393a3806000526006825260406000203360005282526040600020549181600052600781526040600020336000528152604060002054906040519384528301527fe327a67b215868c73556ca1592e7658b059387029d775872b8022e5844e5be3b60403393a3005b634e487b7160e01b600052601160045260246000fd5b606403606481116102a857606434023481046064036102a8576009916102e3916120de565b91846000526007865260406000203360005286526040600020610307848254611fde565b9055600b8101610318848254611fde565b90556101dc565b60405162461bcd60e51b815260048101859052601d60248201527f4d7573742073656e642076616c756520746f20627579207368617265730000006044820152606490fd5b634e487b7160e01b600052602160045260246000fd5b3461012f5761038836611dcb565b6005546001600160a01b031633148015610483575b156104325761042d7f6d4d544f5a6dcf38d77a232d3ef7358625c74877a1ad954fcb507872e7a05eaf918360005260006020526103e06040600020541515611feb565b600084815260208190526040902060068101805461ffff191683151560081b61ff00161760021790555b600742910155604051918291429083602090939291936040810194151581520152565b0390a2005b60405162461bcd60e51b8152602060048201526024808201527f4f6e6c79206f776e6572206f7220677561726469616e732063616e206f7665726044820152637269646560e01b6064820152608490fd5b5033600052600360205260ff6040600020541661039d565b3461012f5760208060031936011261012f576004359081600052600081526040600020906104cb82541515611feb565b600682019182549060ff821660048110156103645760020361067a57600701549262015180938481018091116102a857421161063c578460005260068352604060002033600052835261053c6040600020548660005260078552604060002033600052855260406000205490611fde565b15801590610628575b8015610611575b156105b957600360ff1980931617905583600052600182526040600020924201908142116102a857600384837f8084b73e6ae723bc9f733816340a6866bff7c61bfab84a512390f062589bcb479655600060018201556000600282015501908154169055604051908152a2005b60405162461bcd60e51b815260048101849052602a60248201527f4d75737420686f6c6420736861726573206f7220626520677561726469616e20604482015269746f206469737075746560b01b6064820152608490fd5b50336000526003835260ff6040600020541661054c565b506005546001600160a01b03163314610545565b60405162461bcd60e51b8152600481018490526016602482015275111a5cdc1d5d19481dda5b991bddc8195e1c1a5c995960521b6044820152606490fd5b60405162461bcd60e51b815260048101849052602260248201527f4d61726b6574206d757374206265207265736f6c76656420746f206469737075604482015261746560f01b6064820152608490fd5b3461012f57602036600319011261012f5760043560005260006020526040600020805490600181016106fb90611e9d565b61070760028301611e9d565b906003830154926004810161071b90611e9d565b60058201546006830154600784015460ff821697919361073d60088701611e9d565b92600987015498600a88015497600b0154986040519c8d528c6101a06020819201528d0161076a91611f43565b8c810360408e015261077b91611f43565b9060608c01528a810360808c015261079291611f43565b9260a08a015260048810156103645760ff6107cd948a9960c08b015260081c16151560e0890152610100880152868203610120880152611f43565b926101408501526101608401526101808301520390f35b3461012f57602036600319011261012f576107fd611d9f565b6005546001600160a01b0391906108179083163314611f83565b166000908152600360205260409020805460ff19166001179055005b3461012f5761084136611dcb565b908060005260206000815260ff60066040600020015416600481101561036457600361086d911461202f565b8160005260018082526040600020544210156109dc578260005260028252604060002033600052825260ff60406000205416610997577ff52487ecfb56e1ea5749008407ab5db2967701bfe848f4d02183460d06a10ba39161096791846000526006825260406000203360005282526109046040600020548660005260078452604060002033600052845260406000205490611fde565b91821561098d575b600086815260028252604080822033835283529020805460ff1916831790558190871561096c578660005252604060002001610949828254611fde565b90555b60408051951515865260208601919091523394918291820190565b0390a3005b905085600052526002604060002001610986828254611fde565b905561094c565b909150819061090c565b60405162461bcd60e51b815260048101839052601d60248201527f416c726561647920766f746564206f6e207468697320646973707574650000006044820152606490fd5b60405162461bcd60e51b815260048101839052601c60248201527f4469737075746520766f74696e672077696e646f7720636c6f736564000000006044820152606490fd5b3461012f57604036600319011261012f57610a3a611db5565b600435600052600660205260406000209060018060a01b03166000526020526020604060002054604051908152f35b3461012f57604036600319011261012f57610a82611db5565b600435600052600860205260406000209060018060a01b0316600052602052602060ff604060002054166040519015158152f35b3461012f5760a036600319011261012f5760043567ffffffffffffffff811161012f57610ae7903690600401611e0c565b60243567ffffffffffffffff811161012f57610b07903690600401611e0c565b9060443560643567ffffffffffffffff811161012f57610b2b903690600401611e0c565b90610b4160018060a01b03600554163314611f83565b610b4c600454611fcf565b9081600455633b9aca00811160001461119a57915b604051946101a0860186811067ffffffffffffffff821117610f14576040528286528460208701526040860152826060860152608085015260843560a0850152600060c0850152600060e0850152600061010085015260405180602081011067ffffffffffffffff602083011117610f145760208101604052600081526101208501526000610140850152600061016085015260006101808501526000526000602052604060002083518155602084015180519067ffffffffffffffff8211610f14578190610c336001850154611e63565b601f8111611147575b50602090601f83116001146110d5576000926110ca575b50508160011b916000199060031b1c19161760018201555b604084015180519067ffffffffffffffff8211610f14578190610c916002850154611e63565b601f8111611077575b50602090601f831160011461100557600092610ffa575b50508160011b916000199060031b1c19161760028201555b60608401516003820155608084015180519067ffffffffffffffff8211610f14578190610cf96004850154611e63565b601f8111610fa7575b50602090601f8311600114610f3557600092610f2a575b50508160011b916000199060031b1c19161760048201555b60a0840151600582015560c084015160068201600482101561036457805460e087015161ff0090151560081b1660ff9390931661ffff1990911617919091179055610100840151600782015561012084015193845167ffffffffffffffff8111610f1457610da26008840154611e63565b95601f8711610ecd575b602096508690601f8311600114610e5b579180600b949261018094600092610e50575b50508160011b916000199060031b1c19161760088501555b6101408101516009850155610160810151600a85015501519101557f2d1e9ad45dbe8e898e0374deebf2a661b2ae7c1855d2a29507d584c35d287c75610e40600454938493604051928392604084526040840190611f43565b90878301520390a2604051908152f35b015190508980610dcf565b90601f1983169160088601600052886000209260005b818110610eb6575092600192859261018096600b989610610e9d575b505050811b016008850155610de7565b015160001960f88460031b161c19169055898080610e8d565b92938a600181928786015181550195019301610e71565b600884016000526020600020601f830160051c810160208410610f0d575b601f890160051c82018110610f01575050610dac565b60008155600101610eeb565b5080610eeb565b634e487b7160e01b600052604160045260246000fd5b015190508680610d19565b9250600484016000526020600020906000935b601f1984168510610f8c576001945083601f19811610610f73575b505050811b016004820155610d31565b015160001960f88460031b161c19169055868080610f63565b81810151835560209485019460019093019290910190610f48565b909150600484016000526020600020601f840160051c810160208510610ff3575b90849392915b601f830160051c82018110610fe4575050610d02565b60008155859450600101610fce565b5080610fc8565b015190508680610cb1565b9250600284016000526020600020906000935b601f198416851061105c576001945083601f19811610611043575b505050811b016002820155610cc9565b015160001960f88460031b161c19169055868080611033565b81810151835560209485019460019093019290910190611018565b909150600284016000526020600020601f840160051c8101602085106110c3575b90849392915b601f830160051c820181106110b4575050610c9a565b6000815585945060010161109e565b5080611098565b015190508680610c53565b9250600184016000526020600020906000935b601f198416851061112c576001945083601f19811610611113575b505050811b016001820155610c6b565b015160001960f88460031b161c19169055868080611103565b818101518355602094850194600190930192909101906110e8565b909150600184016000526020600020601f840160051c810160208510611193575b90849392915b601f830160051c82018110611184575050610c3c565b6000815585945060010161116e565b5080611168565b6111a49042611fde565b91610b61565b3461012f5760206111c36111bd36611dcb565b9061217e565b604051908152f35b3461012f57600036600319011261012f576005546040516001600160a01b039091168152602090f35b3461012f57604036600319011261012f5761120d611db5565b600435600052600760205260406000209060018060a01b03166000526020526020604060002054604051908152f35b3461012f57602036600319011261012f57611255611d9f565b6005546001600160a01b03919061126f9083163314611f83565b166000908152600360205260409020805460ff19169055005b3461012f5761129636611dcb565b6112ab60018060a01b03600554163314611f83565b8160005260006020526112c46040600020541515611feb565b81600052600060205260ff60066040600020015416600481101561036457158015611388575b1561134357600082815260208190526040902060068101805461ffff191683151560081b61ff00161760021790557f6d4d544f5a6dcf38d77a232d3ef7358625c74877a1ad954fcb507872e7a05eaf9161042d9161040a565b60405162461bcd60e51b815260206004820152601760248201527f4d61726b657420616c7265616479207265736f6c7665640000000000000000006044820152606490fd5b5081600052600060205260ff600660406000200154166004811015610364576001146112ea565b3461012f5760208060031936011261012f5760043590816000526000815260406000206006810160ff81541660048110156103645760036113f0911461202f565b83600052600183526040600020908154421080159061156a575b8015611553575b1561150e57600382019182549260ff84166114c95760ff19909316600190811790935591820154600292830154825461ffff1916911015600881901b61ff00169190911790921790557f6d4d544f5a6dcf38d77a232d3ef7358625c74877a1ad954fcb507872e7a05eaf9261042d9285917f6094caf45c2924da34dd706c33f09ec619587bac9144486d8f82b0316e47e7b391600742910155604051848152a260408051911515825242602083015290918291820190565b60405162461bcd60e51b815260048101879052601960248201527f4469737075746520616c72656164792066696e616c697a6564000000000000006044820152606490fd5b60405162461bcd60e51b815260048101859052601860248201527f566f74696e672077696e646f77207374696c6c206f70656e00000000000000006044820152606490fd5b50336000526003845260ff60406000205416611411565b506005546001600160a01b0316331461140a565b3461012f57602036600319011261012f5760043560005260016020526080604060002080549060018101549060ff6003600283015492015416916040519384526020840152604083015215156060820152f35b3461012f57600036600319011261012f57600180805b6115ed57005b600454811161169657806000526020906000825260069060ff82604060002001541691600483101561036457849361163293158061167c575b611638575b5050611fcf565b906115e7565b600090838252526040600020018360ff19825416179055807fc13cc0ca705b4d1abd2086af97770c25121ac873906044d59cc2c8cf61885289600080a2848061162b565b508260005260008152600360406000200154421015611626565b005b3461012f5760208060031936011261012f57600435806000526000825260406000206116c681541515611feb565b60ff6006820154166004811015610364576116e1901561207b565b8160005260068352604060002033600052835260406000205482600052600784526040600020336000528452604060002054811590811580926118f4575b156118bb57600091611730866120fe565b606494818603918683116102a8578693611879575b50508261182e575b5050508060011b818104600214821517156102a857600991836117719204906120be565b9201908154908382106117ec5750600083819493611791839584956120be565b90558181156117e3575b3390f1156117d7576000604051928184528301527fe327a67b215868c73556ca1592e7658b059387029d775872b8022e5844e5be3b60403393a3005b6040513d6000823e3d90fd5b506108fc61179b565b60405162461bcd60e51b815260048101879052601e60248201527f496e73756666696369656e74206c697175696469747920696e20706f6f6c00006044820152fd5b9061183e839492611845946120cb565b0490611fde565b90611855600b85019182546120be565b9055836000526007855260406000203360005285526000604081205585828161174d565b8195506118879084926120cb565b0493611898600a88019182546120be565b905586600052600688526040600020336000528852600060408120558880611745565b60405162461bcd60e51b8152600481018790526011602482015270139bc81cda185c995cc81d1bc81cd95b1b607a1b6044820152606490fd5b5080151561171f565b3461012f5760208060031936011261012f5760043580600052600082526040600020600681015460ff8116600481101561036457600203611cd2578260005260088452604060002033600052845260ff60406000205416611c8d576009820154908115611c485760081c60ff168015611c295783600052600685526040600020336000528552604060002054905b8015611c1e57600a840154935b8415611b0e5750508015611ac9576119b992916119b4916120cb565b6120de565b8015611a8457816000526008835260406000203360005283526040600020600160ff19825416179055816000526006835260406000203360005283526000604081205581600052600783526040600020336000528352600060408120556000808080843382f1156117d757604051908152817f3300bdb359cfb956935bca32e9db727413eab1ca84341f2e36caea85bb796968843393a36000604051928184528301527fe327a67b215868c73556ca1592e7658b059387029d775872b8022e5844e5be3b60403393a3005b60405162461bcd60e51b815260048101849052601960248201527f43616c63756c6174656420726577617264206973207a65726f000000000000006044820152606490fd5b60405162461bcd60e51b815260048101869052601d60248201527f596f7520646f206e6f74206f776e2077696e6e696e67207368617265730000006044820152606490fd5b9150925082600014611bff5783600052600785526040600020336000528552604060002054925b15611bf557600b0154915b8015611ba4578215611b5f57611b5a92916119b4916120cb565b6119b9565b60405162461bcd60e51b815260048101869052601d60248201527f496e76616c696420706f6f6c20737461746520666f7220726566756e640000006044820152606490fd5b60405162461bcd60e51b815260048101869052602360248201527f596f7520646f206e6f74206f776e20616e792073686172657320746f207265666044820152621d5b9960ea1b6064820152608490fd5b600a015491611b40565b8360005260068552604060002033600052855260406000205492611b35565b600b84015493611998565b836000526007855260406000203360005285526040600020549061198b565b60405162461bcd60e51b815260048101869052601f60248201527f4e6f206c697175696469747920696e206d61726b657420746f20636c61696d006044820152606490fd5b60405162461bcd60e51b815260048101859052601860248201527f57696e6e696e677320616c726561647920636c61696d656400000000000000006044820152606490fd5b60405162461bcd60e51b815260048101859052601760248201527f4d61726b6574206e6f74207265736f6c766564207965740000000000000000006044820152606490fd5b3461012f57604036600319011261012f57611d30611db5565b600435600052600260205260406000209060018060a01b0316600052602052602060ff604060002054166040519015158152f35b3461012f57602036600319011261012f576020906001600160a01b03611d88611d9f565b166000526003825260ff6040600020541615158152f35b600435906001600160a01b038216820361012f57565b602435906001600160a01b038216820361012f57565b604090600319011261012f5760043590602435801515810361012f5790565b90601f8019910116810190811067ffffffffffffffff821117610f1457604052565b81601f8201121561012f5780359067ffffffffffffffff8211610f145760405192611e41601f8401601f191660200185611dea565b8284526020838301011161012f57816000926020809301838601378301015290565b90600182811c92168015611e93575b6020831014611e7d57565b634e487b7160e01b600052602260045260246000fd5b91607f1691611e72565b9060405191826000825492611eb184611e63565b908184526001948581169081600014611f205750600114611edd575b5050611edb92500383611dea565b565b9093915060005260209081600020936000915b818310611f08575050611edb93508201013880611ecd565b85548884018501529485019487945091830191611ef0565b915050611edb94506020925060ff191682840152151560051b8201013880611ecd565b919082519283825260005b848110611f6f575050826000602080949584010152601f8019910116010190565b602081830181015184830182015201611f4e565b15611f8a57565b60405162461bcd60e51b815260206004820152601860248201527f4f6e6c79206f776e65722063616e2063616c6c207468697300000000000000006044820152606490fd5b60001981146102a85760010190565b919082018092116102a857565b15611ff257565b60405162461bcd60e51b815260206004820152601560248201527413585c9ad95d08191bd95cc81b9bdd08195e1a5cdd605a1b6044820152606490fd5b1561203657565b60405162461bcd60e51b815260206004820152601860248201527f4d61726b6574206973206e6f7420696e206469737075746500000000000000006044820152606490fd5b1561208257565b60405162461bcd60e51b81526020600482015260146024820152734d61726b6574206973206e6f742061637469766560601b6044820152606490fd5b919082039182116102a857565b818102929181159184041417156102a857565b81156120e8570490565b634e487b7160e01b600052601260045260246000fd5b60005260006020526040600020600a81015490811590818092612172575b61216a57600b61212e91015483611fde565b906064830292830460641417156102a857612148916120de565b60058110612162575b605f811161215c5790565b50605f90565b506005612151565b505050603290565b50600b8101541561211c565b60009081528060205260408120600a810154801591828093612239575b61222f57600b6121ad91015482611fde565b9160648202918204606414171561221b57906121c8916120de565b9160058310612212575b605f8311612209575b156121e4575090565b9060640390606482116121f5575090565b634e487b7160e01b81526011600452602490fd5b605f92506121db565b600592506121d2565b634e487b7160e01b83526011600452602483fd5b5050505050603290565b50600b8101541561219b56fea264697066735822122067ecf3c7085e7b933ed03e66e5da4e61d9e4afbf92af0ee067457a6399daf15564736f6c63430008140033",
  "linkReferences": {},
  "deployedLinkReferences": {}
}