{"contracts/MarketFactory.sol":{"MarketFactory":{"abi":[{"inputs":[],"stateMutability":"nonpayable","type":"constructor"},{"anonymous":false,"inputs":[{"indexed":true,"internalType":"uint256","name":"marketId","type":"uint256"},{"indexed":false,"internalType":"bool","name":"finalOutcome","type":"bool"}],"name":"DisputeFinalized","type":"event"},{"anonymous":false,"inputs":[{"indexed":true,"internalType":"uint256","name":"marketId","type":"uint256"},{"indexed":true,"internalType":"address","name":"voter","type":"address"},{"indexed":false,"internalType":"bool","name":"vote","type":"bool"},{"indexed":false,"internalType":"uint256","name":"weight","type":"uint256"}],"name":"DisputeVoteCast","type":"event"},{"anonymous":false,"inputs":[{"indexed":true,"internalType":"uint256","name":"marketId","type":"uint256"},{"indexed":false,"internalType":"string","name":"title","type":"string"},{"indexed":false,"internalType":"uint256","name":"expiryTimestamp","type":"uint256"}],"name":"MarketCreated","type":"event"},{"anonymous":false,"inputs":[{"indexed":true,"internalType":"uint256","name":"marketId","type":"uint256"},{"indexed":false,"internalType":"uint256","name":"disputeEndTimestamp","type":"uint256"}],"name":"MarketDisputed","type":"event"},{"anonymous":false,"inputs":[{"indexed":true,"internalType":"uint256","name":"marketId","type":"uint256"}],"name":"MarketExpired","type":"event"},{"anonymous":false,"inputs":[{"indexed":true,"internalType":"uint256","name":"marketId","type":"uint256"},{"indexed":false,"internalType":"bool","name":"outcome","type":"bool"},{"indexed":false,"internalType":"uint256","name":"settlementTimestamp","type":"uint256"}],"name":"MarketResolved","type":"event"},{"anonymous":false,"inputs":[{"indexed":true,"internalType":"uint256","name":"marketId","type":"uint256"},{"indexed":true,"internalType":"address","name":"trader","type":"address"},{"indexed":false,"internalType":"uint256","name":"yesShares","type":"uint256"},{"indexed":false,"internalType":"uint256","name":"noShares","type":"uint256"}],"name":"PositionUpdated","type":"event"},{"anonymous":false,"inputs":[{"indexed":true,"internalType":"uint256","name":"marketId","type":"uint256"},{"indexed":true,"internalType":"address","name":"claimant","type":"address"},{"indexed":false,"internalType":"uint256","name":"amountClaimed","type":"uint256"}],"name":"RewardsClaimed","type":"event"},{"anonymous":false,"inputs":[{"indexed":true,"internalType":"uint256","name":"marketId","type":"uint256"},{"indexed":true,"internalType":"address","name":"trader","type":"address"},{"indexed":false,"internalType":"bool","name":"position","type":"bool"},{"indexed":false,"internalType":"uint256","name":"amountSpent","type":"uint256"},{"indexed":false,"internalType":"uint256","name":"sharesMinted","type":"uint256"},{"indexed":false,"internalType":"uint256","name":"newYesOdds","type":"uint256"},{"indexed":false,"internalType":"uint256","name":"newNoOdds","type":"uint256"}],"name":"TradeExecuted","type":"event"},{"inputs":[{"internalType":"address","name":"_guardian","type":"address"}],"name":"addGuardian","outputs":[],"stateMutability":"nonpayable","type":"function"},{"inputs":[{"internalType":"uint256","name":"marketId","type":"uint256"},{"internalType":"bool","name":"position","type":"bool"}],"name":"buyShares","outputs":[],"stateMutability":"payable","type":"function"},{"inputs":[{"internalType":"uint256","name":"marketId","type":"uint256"}],"name":"claimRewards","outputs":[],"stateMutability":"nonpayable","type":"function"},{"inputs":[],"name":"closeExpiredMarkets","outputs":[],"stateMutability":"nonpayable","type":"function"},{"inputs":[{"internalType":"string","name":"_title","type":"string"},{"internalType":"string","name":"_category","type":"string"},{"internalType":"uint256","name":"_expiry","type":"uint256"},{"internalType":"string","name":"_creator","type":"string"},{"internalType":"uint256","name":"_confidence","type":"uint256"}],"name":"createMarket","outputs":[{"internalType":"uint256","name":"","type":"uint256"}],"stateMutability":"nonpayable","type":"function"},{"inputs":[{"internalType":"uint256","name":"marketId","type":"uint256"}],"name":"disputeMarket","outputs":[],"stateMutability":"nonpayable","type":"function"},{"inputs":[{"internalType":"uint256","name":"","type":"uint256"},{"internalType":"address","name":"","type":"address"}],"name":"disputeVoted","outputs":[{"internalType":"bool","name":"","type":"bool"}],"stateMutability":"view","type":"function"},{"inputs":[{"internalType":"uint256","name":"","type":"uint256"}],"name":"disputes","outputs":[{"internalType":"uint256","name":"disputeEndTimestamp","type":"uint256"},{"internalType":"uint256","name":"yesVotes","type":"uint256"},{"internalType":"uint256","name":"noVotes","type":"uint256"},{"internalType":"bool","name":"finalized","type":"bool"}],"stateMutability":"view","type":"function"},{"inputs":[{"internalType":"uint256","name":"marketId","type":"uint256"},{"internalType":"bool","name":"outcome","type":"bool"}],"name":"emergencyResolveMarket","outputs":[],"stateMutability":"nonpayable","type":"function"},{"inputs":[{"internalType":"uint256","name":"marketId","type":"uint256"}],"name":"finalizeDispute","outputs":[],"stateMutability":"nonpayable","type":"function"},{"inputs":[{"internalType":"uint256","name":"marketId","type":"uint256"},{"internalType":"bool","name":"position","type":"bool"}],"name":"getOdds","outputs":[{"internalType":"uint256","name":"","type":"uint256"}],"stateMutability":"view","type":"function"},{"inputs":[{"internalType":"address","name":"","type":"address"}],"name":"guardians","outputs":[{"internalType":"bool","name":"","type":"bool"}],"stateMutability":"view","type":"function"},{"inputs":[],"name":"marketCount","outputs":[{"internalType":"uint256","name":"","type":"uint256"}],"stateMutability":"view","type":"function"},{"inputs":[{"internalType":"uint256","name":"","type":"uint256"}],"name":"markets","outputs":[{"internalType":"uint256","name":"id","type":"uint256"},{"internalType":"string","name":"title","type":"string"},{"internalType":"string","name":"category","type":"string"},{"internalType":"uint256","name":"expiryTimestamp","type":"uint256"},{"internalType":"string","name":"creator","type":"string"},{"internalType":"uint256","name":"confidence","type":"uint256"},{"internalType":"enum MarketFactory.MarketStatus","name":"status","type":"uint8"},{"internalType":"bool","name":"resolvedOutcome","type":"bool"},{"internalType":"uint256","name":"settlementTimestamp","type":"uint256"},{"internalType":"string","name":"transactionHash","type":"string"},{"internalType":"uint256","name":"totalLiquidity","type":"uint256"},{"internalType":"uint256","name":"yesSharesPool","type":"uint256"},{"internalType":"uint256","name":"noSharesPool","type":"uint256"}],"stateMutability":"view","type":"function"},{"inputs":[],"name":"owner","outputs":[{"internalType":"address","name":"","type":"address"}],"stateMutability":"view","type":"function"},{"inputs":[{"internalType":"address","name":"_guardian","type":"address"}],"name":"removeGuardian","outputs":[],"stateMutability":"nonpayable","type":"function"},{"inputs":[{"internalType":"uint256","name":"marketId","type":"uint256"},{"internalType":"bool","name":"outcome","type":"bool"}],"name":"resolveMarket","outputs":[],"stateMutability":"nonpayable","type":"function"},{"inputs":[{"internalType":"uint256","name":"","type":"uint256"},{"internalType":"address","name":"","type":"address"}],"name":"rewardsClaimed","outputs":[{"internalType":"bool","name":"","type":"bool"}],"stateMutability":"view","type":"function"},{"inputs":[{"internalType":"uint256","name":"marketId","type":"uint256"}],"name":"sellShares","outputs":[],"stateMutability":"nonpayable","type":"function"},{"inputs":[{"internalType":"uint256","name":"","type":"uint256"},{"internalType":"address","name":"","type":"address"}],"name":"userNoShares","outputs":[{"internalType":"uint256","name":"","type":"uint256"}],"stateMutability":"view","type":"function"},{"inputs":[{"internalType":"uint256","name":"","type":"uint256"},{"internalType":"address","name":"","type":"address"}],"name":"userYesShares","outputs":[{"internalType":"uint256","name":"","type":"uint256"}],"stateMutability":"view","type":"function"},{"inputs":[{"internalType":"uint256","name":"marketId","type":"uint256"},{"internalType":"bool","name":"voteOutcome","type":"bool"}],"name":"voteOnDispute","outputs":[],"stateMutability":"nonpayable","type":"function"}],"evm":{"bytecode":{"linkReferences":{},"object":"6080806040523461004457600580546001600160a01b031916339081179091556000908152600360205260409020805460ff1916600117905561227b908161004a8239f35b600080fdfe608080604052600436101561001357600080fd5b60003560e01c9081630633b14a14611d645750806308fa40f914611d175780630962ef79146118fd5780634ba8ae81146116985780634ff055b6146115d1578063564a565d1461157e57806356989a83146113af57806357bde44614611288578063714041561461123c5780638878c048146111f45780638da5cb5b146111cb5780638ff755e9146111aa578063905d458d14610ab65780639a835e9114610a695780639d53659714610a21578063a4f5df1214610833578063a526d83b146107e4578063b1283e77146106ca578063c971b1c31461049b578063d1cd33261461037a578063eb7177ee146101345763ec9790821461011157600080fd5b3461012f57600036600319011261012f576020600454604051908152f35b600080fd5b61013d36611dcb565b908060005260209160008352604060002061015a81541515611feb565b60ff600682015416600481101561036457610175901561207b565b341561031f57610184836120fe565b82156102be57606434023481046064036102a8576009916101a4916120de565b918460005260068652604060002033600052865260406000206101c8848254611fde565b9055600a81016101d9848254611fde565b90555b016101e8348254611fde565b90556101f3836120fe565b8060640391606483116102a85760405193151584523486850152604084015260608301526080820152817f8078c17f8e63fc630d3358bd26476aa8b80c43c97cadb2eb763eb7b9a628094260a03393a3806000526006825260406000203360005282526040600020549181600052600781526040600020336000528152604060002054906040519384528301527fe327a67b215868c73556ca1592e7658b059387029d775872b8022e5844e5be3b60403393a3005b634e487b7160e01b600052601160045260246000fd5b606403606481116102a857606434023481046064036102a8576009916102e3916120de565b91846000526007865260406000203360005286526040600020610307848254611fde565b9055600b8101610318848254611fde565b90556101dc565b60405162461bcd60e51b815260048101859052601d60248201527f4d7573742073656e642076616c756520746f20627579207368617265730000006044820152606490fd5b634e487b7160e01b600052602160045260246000fd5b3461012f5761038836611dcb565b6005546001600160a01b031633148015610483575b156104325761042d7f6d4d544f5a6dcf38d77a232d3ef7358625c74877a1ad954fcb507872e7a05eaf918360005260006020526103e06040600020541515611feb565b600084815260208190526040902060068101805461ffff191683151560081b61ff00161760021790555b600742910155604051918291429083602090939291936040810194151581520152565b0390a2005b60405162461bcd60e51b8152602060048201526024808201527f4f6e6c79206f776e6572206f7220677561726469616e732063616e206f7665726044820152637269646560e01b6064820152608490fd5b5033600052600360205260ff6040600020541661039d565b3461012f5760208060031936011261012f576004359081600052600081526040600020906104cb82541515611feb565b600682019182549060ff821660048110156103645760020361067a57600701549262015180938481018091116102a857421161063c578460005260068352604060002033600052835261053c6040600020548660005260078552604060002033600052855260406000205490611fde565b15801590610628575b8015610611575b156105b957600360ff1980931617905583600052600182526040600020924201908142116102a857600384837f8084b73e6ae723bc9f733816340a6866bff7c61bfab84a512390f062589bcb479655600060018201556000600282015501908154169055604051908152a2005b60405162461bcd60e51b815260048101849052602a60248201527f4d75737420686f6c6420736861726573206f7220626520677561726469616e20604482015269746f206469737075746560b01b6064820152608490fd5b50336000526003835260ff6040600020541661054c565b506005546001600160a01b03163314610545565b60405162461bcd60e51b8152600481018490526016602482015275111a5cdc1d5d19481dda5b991bddc8195e1c1a5c995960521b6044820152606490fd5b60405162461bcd60e51b815260048101849052602260248201527f4d61726b6574206d757374206265207265736f6c76656420746f206469737075604482015261746560f01b6064820152608490fd5b3461012f57602036600319011261012f5760043560005260006020526040600020805490600181016106fb90611e9d565b61070760028301611e9d565b906003830154926004810161071b90611e9d565b60058201546006830154600784015460ff821697919361073d60088701611e9d565b92600987015498600a88015497600b0154986040519c8d528c6101a06020819201528d0161076a91611f43565b8c810360408e015261077b91611f43565b9060608c01528a810360808c015261079291611f43565b9260a08a015260048810156103645760ff6107cd948a9960c08b015260081c16151560e0890152610100880152868203610120880152611f43565b926101408501526101608401526101808301520390f35b3461012f57602036600319011261012f576107fd611d9f565b6005546001600160a01b0391906108179083163314611f83565b166000908152600360205260409020805460ff19166001179055005b3461012f5761084136611dcb565b908060005260206000815260ff60066040600020015416600481101561036457600361086d911461202f565b8160005260018082526040600020544210156109dc578260005260028252604060002033600052825260ff60406000205416610997577ff52487ecfb56e1ea5749008407ab5db2967701bfe848f4d02183460d06a10ba39161096791846000526006825260406000203360005282526109046040600020548660005260078452604060002033600052845260406000205490611fde565b91821561098d575b600086815260028252604080822033835283529020805460ff1916831790558190871561096c578660005252604060002001610949828254611fde565b90555b60408051951515865260208601919091523394918291820190565b0390a3005b905085600052526002604060002001610986828254611fde565b905561094c565b909150819061090c565b60405162461bcd60e51b815260048101839052601d60248201527f416c726561647920766f746564206f6e207468697320646973707574650000006044820152606490fd5b60405162461bcd60e51b815260048101839052601c60248201527f4469737075746520766f74696e672077696e646f7720636c6f736564000000006044820152606490fd5b3461012f57604036600319011261012f57610a3a611db5565b600435600052600660205260406000209060018060a01b03166000526020526020604060002054604051908152f35b3461012f57604036600319011261012f57610a82611db5565b600435600052600860205260406000209060018060a01b0316600052602052602060ff604060002054166040519015158152f35b3461012f5760a036600319011261012f5760043567ffffffffffffffff811161012f57610ae7903690600401611e0c565b60243567ffffffffffffffff811161012f57610b07903690600401611e0c565b9060443560643567ffffffffffffffff811161012f57610b2b903690600401611e0c565b90610b4160018060a01b03600554163314611f83565b610b4c600454611fcf565b9081600455633b9aca00811160001461119a57915b604051946101a0860186811067ffffffffffffffff821117610f14576040528286528460208701526040860152826060860152608085015260843560a0850152600060c0850152600060e0850152600061010085015260405180602081011067ffffffffffffffff602083011117610f145760208101604052600081526101208501526000610140850152600061016085015260006101808501526000526000602052604060002083518155602084015180519067ffffffffffffffff8211610f14578190610c336001850154611e63565b601f8111611147575b50602090601f83116001146110d5576000926110ca575b50508160011b916000199060031b1c19161760018201555b604084015180519067ffffffffffffffff8211610f14578190610c916002850154611e63565b601f8111611077575b50602090601f831160011461100557600092610ffa575b50508160011b916000199060031b1c19161760028201555b60608401516003820155608084015180519067ffffffffffffffff8211610f14578190610cf96004850154611e63565b601f8111610fa7575b50602090601f8311600114610f3557600092610f2a575b50508160011b916000199060031b1c19161760048201555b60a0840151600582015560c084015160068201600482101561036457805460e087015161ff0090151560081b1660ff9390931661ffff1990911617919091179055610100840151600782015561012084015193845167ffffffffffffffff8111610f1457610da26008840154611e63565b95601f8711610ecd575b602096508690601f8311600114610e5b579180600b949261018094600092610e50575b50508160011b916000199060031b1c19161760088501555b6101408101516009850155610160810151600a85015501519101557f2d1e9ad45dbe8e898e0374deebf2a661b2ae7c1855d2a29507d584c35d287c75610e40600454938493604051928392604084526040840190611f43565b90878301520390a2604051908152f35b015190508980610dcf565b90601f1983169160088601600052886000209260005b818110610eb6575092600192859261018096600b989610610e9d575b505050811b016008850155610de7565b015160001960f88460031b161c19169055898080610e8d565b92938a600181928786015181550195019301610e71565b600884016000526020600020601f830160051c810160208410610f0d575b601f890160051c82018110610f01575050610dac565b60008155600101610eeb565b5080610eeb565b634e487b7160e01b600052604160045260246000fd5b015190508680610d19565b9250600484016000526020600020906000935b601f1984168510610f8c576001945083601f19811610610f73575b505050811b016004820155610d31565b015160001960f88460031b161c19169055868080610f63565b81810151835560209485019460019093019290910190610f48565b909150600484016000526020600020601f840160051c810160208510610ff3575b90849392915b601f830160051c82018110610fe4575050610d02565b60008155859450600101610fce565b5080610fc8565b015190508680610cb1565b9250600284016000526020600020906000935b601f198416851061105c576001945083601f19811610611043575b505050811b016002820155610cc9565b015160001960f88460031b161c19169055868080611033565b81810151835560209485019460019093019290910190611018565b909150600284016000526020600020601f840160051c8101602085106110c3575b90849392915b601f830160051c820181106110b4575050610c9a565b6000815585945060010161109e565b5080611098565b015190508680610c53565b9250600184016000526020600020906000935b601f198416851061112c576001945083601f19811610611113575b505050811b016001820155610c6b565b015160001960f88460031b161c19169055868080611103565b818101518355602094850194600190930192909101906110e8565b909150600184016000526020600020601f840160051c810160208510611193575b90849392915b601f830160051c82018110611184575050610c3c565b6000815585945060010161116e565b5080611168565b6111a49042611fde565b91610b61565b3461012f5760206111c36111bd36611dcb565b9061217e565b604051908152f35b3461012f57600036600319011261012f576005546040516001600160a01b039091168152602090f35b3461012f57604036600319011261012f5761120d611db5565b600435600052600760205260406000209060018060a01b03166000526020526020604060002054604051908152f35b3461012f57602036600319011261012f57611255611d9f565b6005546001600160a01b03919061126f9083163314611f83565b166000908152600360205260409020805460ff19169055005b3461012f5761129636611dcb565b6112ab60018060a01b03600554163314611f83565b8160005260006020526112c46040600020541515611feb565b81600052600060205260ff60066040600020015416600481101561036457158015611388575b1561134357600082815260208190526040902060068101805461ffff191683151560081b61ff00161760021790557f6d4d544f5a6dcf38d77a232d3ef7358625c74877a1ad954fcb507872e7a05eaf9161042d9161040a565b60405162461bcd60e51b815260206004820152601760248201527f4d61726b657420616c7265616479207265736f6c7665640000000000000000006044820152606490fd5b5081600052600060205260ff600660406000200154166004811015610364576001146112ea565b3461012f5760208060031936011261012f5760043590816000526000815260406000206006810160ff81541660048110156103645760036113f0911461202f565b83600052600183526040600020908154421080159061156a575b8015611553575b1561150e57600382019182549260ff84166114c95760ff19909316600190811790935591820154600292830154825461ffff1916911015600881901b61ff00169190911790921790557f6d4d544f5a6dcf38d77a232d3ef7358625c74877a1ad954fcb507872e7a05eaf9261042d9285917f6094caf45c2924da34dd706c33f09ec619587bac9144486d8f82b0316e47e7b391600742910155604051848152a260408051911515825242602083015290918291820190565b60405162461bcd60e51b815260048101879052601960248201527f4469737075746520616c72656164792066696e616c697a6564000000000000006044820152606490fd5b60405162461bcd60e51b815260048101859052601860248201527f566f74696e672077696e646f77207374696c6c206f70656e00000000000000006044820152606490fd5b50336000526003845260ff60406000205416611411565b506005546001600160a01b0316331461140a565b3461012f57602036600319011261012f5760043560005260016020526080604060002080549060018101549060ff6003600283015492015416916040519384526020840152604083015215156060820152f35b3461012f57600036600319011261012f57600180805b6115ed57005b600454811161169657806000526020906000825260069060ff82604060002001541691600483101561036457849361163293158061167c575b611638575b5050611fcf565b906115e7565b600090838252526040600020018360ff19825416179055807fc13cc0ca705b4d1abd2086af97770c25121ac873906044d59cc2c8cf61885289600080a2848061162b565b508260005260008152600360406000200154421015611626565b005b3461012f5760208060031936011261012f57600435806000526000825260406000206116c681541515611feb565b60ff6006820154166004811015610364576116e1901561207b565b8160005260068352604060002033600052835260406000205482600052600784526040600020336000528452604060002054811590811580926118f4575b156118bb57600091611730866120fe565b606494818603918683116102a8578693611879575b50508261182e575b5050508060011b818104600214821517156102a857600991836117719204906120be565b9201908154908382106117ec5750600083819493611791839584956120be565b90558181156117e3575b3390f1156117d7576000604051928184528301527fe327a67b215868c73556ca1592e7658b059387029d775872b8022e5844e5be3b60403393a3005b6040513d6000823e3d90fd5b506108fc61179b565b60405162461bcd60e51b815260048101879052601e60248201527f496e73756666696369656e74206c697175696469747920696e20706f6f6c00006044820152fd5b9061183e839492611845946120cb565b0490611fde565b90611855600b85019182546120be565b9055836000526007855260406000203360005285526000604081205585828161174d565b8195506118879084926120cb565b0493611898600a88019182546120be565b905586600052600688526040600020336000528852600060408120558880611745565b60405162461bcd60e51b8152600481018790526011602482015270139bc81cda185c995cc81d1bc81cd95b1b607a1b6044820152606490fd5b5080151561171f565b3461012f5760208060031936011261012f5760043580600052600082526040600020600681015460ff8116600481101561036457600203611cd2578260005260088452604060002033600052845260ff60406000205416611c8d576009820154908115611c485760081c60ff168015611c295783600052600685526040600020336000528552604060002054905b8015611c1e57600a840154935b8415611b0e5750508015611ac9576119b992916119b4916120cb565b6120de565b8015611a8457816000526008835260406000203360005283526040600020600160ff19825416179055816000526006835260406000203360005283526000604081205581600052600783526040600020336000528352600060408120556000808080843382f1156117d757604051908152817f3300bdb359cfb956935bca32e9db727413eab1ca84341f2e36caea85bb796968843393a36000604051928184528301527fe327a67b215868c73556ca1592e7658b059387029d775872b8022e5844e5be3b60403393a3005b60405162461bcd60e51b815260048101849052601960248201527f43616c63756c6174656420726577617264206973207a65726f000000000000006044820152606490fd5b60405162461bcd60e51b815260048101869052601d60248201527f596f7520646f206e6f74206f776e2077696e6e696e67207368617265730000006044820152606490fd5b9150925082600014611bff5783600052600785526040600020336000528552604060002054925b15611bf557600b0154915b8015611ba4578215611b5f57611b5a92916119b4916120cb565b6119b9565b60405162461bcd60e51b815260048101869052601d60248201527f496e76616c696420706f6f6c20737461746520666f7220726566756e640000006044820152606490fd5b60405162461bcd60e51b815260048101869052602360248201527f596f7520646f206e6f74206f776e20616e792073686172657320746f207265666044820152621d5b9960ea1b6064820152608490fd5b600a015491611b40565b8360005260068552604060002033600052855260406000205492611b35565b600b84015493611998565b836000526007855260406000203360005285526040600020549061198b565b60405162461bcd60e51b815260048101869052601f60248201527f4e6f206c697175696469747920696e206d61726b657420746f20636c61696d006044820152606490fd5b60405162461bcd60e51b815260048101859052601860248201527f57696e6e696e677320616c726561647920636c61696d656400000000000000006044820152606490fd5b60405162461bcd60e51b815260048101859052601760248201527f4d61726b6574206e6f74207265736f6c766564207965740000000000000000006044820152606490fd5b3461012f57604036600319011261012f57611d30611db5565b600435600052600260205260406000209060018060a01b0316600052602052602060ff604060002054166040519015158152f35b3461012f57602036600319011261012f576020906001600160a01b03611d88611d9f565b166000526003825260ff6040600020541615158152f35b600435906001600160a01b038216820361012f57565b602435906001600160a01b038216820361012f57565b604090600319011261012f5760043590602435801515810361012f5790565b90601f8019910116810190811067ffffffffffffffff821117610f1457604052565b81601f8201121561012f5780359067ffffffffffffffff8211610f145760405192611e41601f8401601f191660200185611dea565b8284526020838301011161012f57816000926020809301838601378301015290565b90600182811c92168015611e93575b6020831014611e7d57565b634e487b7160e01b600052602260045260246000fd5b91607f1691611e72565b9060405191826000825492611eb184611e63565b908184526001948581169081600014611f205750600114611edd575b5050611edb92500383611dea565b565b9093915060005260209081600020936000915b818310611f08575050611edb93508201013880611ecd565b85548884018501529485019487945091830191611ef0565b915050611edb94506020925060ff191682840152151560051b8201013880611ecd565b919082519283825260005b848110611f6f575050826000602080949584010152601f8019910116010190565b602081830181015184830182015201611f4e565b15611f8a57565b60405162461bcd60e51b815260206004820152601860248201527f4f6e6c79206f776e65722063616e2063616c6c207468697300000000000000006044820152606490fd5b60001981146102a85760010190565b919082018092116102a857565b15611ff257565b60405162461bcd60e51b815260206004820152601560248201527413585c9ad95d08191bd95cc81b9bdd08195e1a5cdd605a1b6044820152606490fd5b1561203657565b60405162461bcd60e51b815260206004820152601860248201527f4d61726b6574206973206e6f7420696e206469737075746500000000000000006044820152606490fd5b1561208257565b60405162461bcd60e51b81526020600482015260146024820152734d61726b6574206973206e6f742061637469766560601b6044820152606490fd5b919082039182116102a857565b818102929181159184041417156102a857565b81156120e8570490565b634e487b7160e01b600052601260045260246000fd5b60005260006020526040600020600a81015490811590818092612172575b61216a57600b61212e91015483611fde565b906064830292830460641417156102a857612148916120de565b60058110612162575b605f811161215c5790565b50605f90565b506005612151565b505050603290565b50600b8101541561211c565b60009081528060205260408120600a810154801591828093612239575b61222f57600b6121ad91015482611fde565b9160648202918204606414171561221b57906121c8916120de565b9160058310612212575b605f8311612209575b156121e4575090565b9060640390606482116121f5575090565b634e487b7160e01b81526011600452602490fd5b605f92506121db565b600592506121d2565b634e487b7160e01b83526011600452602483fd5b5050505050603290565b50600b8101541561219b56fea264697066735822122067ecf3c7085e7b933ed03e66e5da4e61d9e4afbf92af0ee067457a6399daf15564736f6c63430008140033","opcodes":"PUSH1 0x80 DUP1 PUSH1 0x40 MSTORE CALLVALUE PUSH2 0x44 JUMPI PUSH1 0x5 DUP1 SLOAD PUSH1 0x1 PUSH1 0x1 PUSH1 0xA0 SHL SUB NOT AND CALLER SWAP1 DUP2 OR SWAP1 SWAP2 SSTORE PUSH1 0x0 SWAP1 DUP2 MSTORE PUSH1 0x3 PUSH1 0x20 MSTORE PUSH1 0x40 SWAP1 KECCAK256 DUP1 SLOAD PUSH1 0xFF NOT AND PUSH1 0x1 OR SWAP1 SSTORE PUSH2 0x227B SWAP1 DUP2 PUSH2 0x4A DUP3 CODECOPY RETURN JUMPDEST PUSH1 0x0 DUP1 REVERT INVALID PUSH1 0x80 DUP1 PUSH1 0x40 MSTORE PUSH1 0x4 CALLDATASIZE LT ISZERO PUSH2 0x13 JUMPI PUSH1 0x0 DUP1 REVERT JUMPDEST PUSH1 0x0 CALLDATALOAD PUSH1 0xE0 SHR SWAP1 DUP2 PUSH4 0x633B14A EQ PUSH2 0x1D64 JUMPI POP DUP1 PUSH4 0x8FA40F9 EQ PUSH2 0x1D17 JUMPI DUP1 PUSH4 0x962EF79 EQ PUSH2 0x18FD JUMPI DUP1 PUSH4 0x4BA8AE81 EQ PUSH2 0x1698 JUMPI DUP1 PUSH4 0x4FF055B6 EQ PUSH2 0x15D1 JUMPI DUP1 PUSH4 0x564A565D EQ PUSH2 0x157E JUMPI DUP1 PUSH4 0x56989A83 EQ PUSH2 0x13AF JUMPI DUP1 PUSH4 0x57BDE446 EQ PUSH2 0x1288 JUMPI DUP1 PUSH4 0x71404156 EQ PUSH2 0x123C JUMPI DUP1 PUSH4 0x8878C048 EQ PUSH2 0x11F4 JUMPI DUP1 PUSH4 0x8DA5CB5B EQ PUSH2 0x11CB JUMPI DUP1 PUSH4 0x8FF755E9 EQ PUSH2 0x11AA JUMPI DUP1 PUSH4 0x905D458D EQ PUSH2 0xAB6 JUMPI DUP1 PUSH4 0x9A835E91 EQ PUSH2 0xA69 JUMPI DUP1 PUSH4 0x9D536597 EQ PUSH2 0xA21 JUMPI DUP1 PUSH4 0xA4F5DF12 EQ PUSH2 0x833 JUMPI DUP1 PUSH4 0xA526D83B EQ PUSH2 0x7E4 JUMPI DUP1 PUSH4 0xB1283E77 EQ PUSH2 0x6CA JUMPI DUP1 PUSH4 0xC971B1C3 EQ PUSH2 0x49B JUMPI DUP1 PUSH4 0xD1CD3326 EQ PUSH2 0x37A JUMPI DUP1 PUSH4 0xEB7177EE EQ PUSH2 0x134 JUMPI PUSH4 0xEC979082 EQ PUSH2 0x111 JUMPI PUSH1 0x0 DUP1 REVERT JUMPDEST CALLVALUE PUSH2 0x12F JUMPI PUSH1 0x0 CALLDATASIZE PUSH1 0x3 NOT ADD SLT PUSH2 0x12F JUMPI PUSH1 0x20 PUSH1 0x4 SLOAD PUSH1 0x40 MLOAD SWAP1 DUP2 MSTORE RETURN JUMPDEST PUSH1 0x0 DUP1 REVERT JUMPDEST PUSH2 0x13D CALLDATASIZE PUSH2 0x1DCB JUMP JUMPDEST SWAP1 DUP1 PUSH1 0x0 MSTORE PUSH1 0x20 SWAP2 PUSH1 0x0 DUP4 MSTORE PUSH1 0x40 PUSH1 0x0 KECCAK256 PUSH2 0x15A DUP2 SLOAD ISZERO ISZERO PUSH2 0x1FEB JUMP JUMPDEST PUSH1 0xFF PUSH1 0x6 DUP3 ADD SLOAD AND PUSH1 0x4 DUP2 LT ISZERO PUSH2 0x364 JUMPI PUSH2 0x175 SWAP1 ISZERO PUSH2 0x207B JUMP JUMPDEST CALLVALUE ISZERO PUSH2 0x31F JUMPI PUSH2 0x184 DUP4 PUSH2 0x20FE JUMP JUMPDEST DUP3 ISZERO PUSH2 0x2BE JUMPI PUSH1 0x64 CALLVALUE MUL CALLVALUE DUP2 DIV PUSH1 0x64 SUB PUSH2 0x2A8 JUMPI PUSH1 0x9 SWAP2 PUSH2 0x1A4 SWAP2 PUSH2 0x20DE JUMP JUMPDEST SWAP2 DUP5 PUSH1 0x0 MSTORE PUSH1 0x6 DUP7 MSTORE PUSH1 0x40 PUSH1 0x0 KECCAK256 CALLER PUSH1 0x0 MSTORE DUP7 MSTORE PUSH1 0x40 PUSH1 0x0 KECCAK256 PUSH2 0x1C8 DUP5 DUP3 SLOAD PUSH2 0x1FDE JUMP JUMPDEST SWAP1 SSTORE PUSH1 0xA DUP2 ADD PUSH2 0x1D9 DUP5 DUP3 SLOAD PUSH2 0x1FDE JUMP JUMPDEST SWAP1 SSTORE JUMPDEST ADD PUSH2 0x1E8 CALLVALUE DUP3 SLOAD PUSH2 0x1FDE JUMP JUMPDEST SWAP1 SSTORE PUSH2 0x1F3 DUP4 PUSH2 0x20FE JUMP JUMPDEST DUP1 PUSH1 0x64 SUB SWAP2 PUSH1 0x64 DUP4 GT PUSH2 0x2A8 JUMPI PUSH1 0x40 MLOAD SWAP4 ISZERO ISZERO DUP5 MSTORE CALLVALUE DUP7 DUP6 ADD MSTORE PUSH1 0x40 DUP5 ADD MSTORE PUSH1 0x60 DUP4 ADD MSTORE PUSH1 0x80 DUP3 ADD MSTORE DUP2 PUSH32 0x8078C17F8E63FC630D3358BD26476AA8B80C43C97CADB2EB763EB7B9A6280942 PUSH1 0xA0 CALLER SWAP4 LOG3 DUP1 PUSH1 0x0 MSTORE PUSH1 0x6 DUP3 MSTORE PUSH1 0x40 PUSH1 0x0 KECCAK256 CALLER PUSH1 0x0 MSTORE DUP3 MSTORE PUSH1 0x40 PUSH1 0x0 KECCAK256 SLOAD SWAP2 DUP2 PUSH1 0x0 MSTORE PUSH1 0x7 DUP2 MSTORE PUSH1 0x40 PUSH1 0x0 KECCAK256 CALLER PUSH1 0x0 MSTORE DUP2 MSTORE PUSH1 0x40 PUSH1 0x0 KECCAK256 SLOAD SWAP1 PUSH1 0x40 MLOAD SWAP4 DUP5 MSTORE DUP4 ADD MSTORE PUSH32 0xE327A67B215868C73556CA1592E7658B059387029D775872B8022E5844E5BE3B PUSH1 0x40 CALLER SWAP4 LOG3 STOP JUMPDEST PUSH4 0x4E487B71 PUSH1 0xE0 SHL PUSH1 0x0 MSTORE PUSH1 0x11 PUSH1 0x4 MSTORE PUSH1 0x24 PUSH1 0x0 REVERT JUMPDEST PUSH1 0x64 SUB PUSH1 0x64 DUP2 GT PUSH2 0x2A8 JUMPI PUSH1 0x64 CALLVALUE MUL CALLVALUE DUP2 DIV PUSH1 0x64 SUB PUSH2 0x2A8 JUMPI PUSH1 0x9 SWAP2 PUSH2 0x2E3 SWAP2 PUSH2 0x20DE JUMP JUMPDEST SWAP2 DUP5 PUSH1 0x0 MSTORE PUSH1 0x7 DUP7 MSTORE PUSH1 0x40 PUSH1 0x0 KECCAK256 CALLER PUSH1 0x0 MSTORE DUP7 MSTORE PUSH1 0x40 PUSH1 0x0 KECCAK256 PUSH2 0x307 DUP5 DUP3 SLOAD PUSH2 0x1FDE JUMP JUMPDEST SWAP1 SSTORE PUSH1 0xB DUP2 ADD PUSH2 0x318 DUP5 DUP3 SLOAD PUSH2 0x1FDE JUMP JUMPDEST SWAP1 SSTORE PUSH2 0x1DC JUMP JUMPDEST PUSH1 0x40 MLOAD PUSH3 0x461BCD PUSH1 0xE5 SHL DUP2 MSTORE PUSH1 0x4 DUP2 ADD DUP6 SWAP1 MSTORE PUSH1 0x1D PUSH1 0x24 DUP3 ADD MSTORE PUSH32 0x4D7573742073656E642076616C756520746F2062757920736861726573000000 PUSH1 0x44 DUP3 ADD MSTORE PUSH1 0x64 SWAP1 REVERT JUMPDEST PUSH4 0x4E487B71 PUSH1 0xE0 SHL PUSH1 0x0 MSTORE PUSH1 0x21 PUSH1 0x4 MSTORE PUSH1 0x24 PUSH1 0x0 REVERT JUMPDEST CALLVALUE PUSH2 0x12F JUMPI PUSH2 0x388 CALLDATASIZE PUSH2 0x1DCB JUMP JUMPDEST PUSH1 0x5 SLOAD PUSH1 0x1 PUSH1 0x1 PUSH1 0xA0 SHL SUB AND CALLER EQ DUP1 ISZERO PUSH2 0x483 JUMPI JUMPDEST ISZERO PUSH2 0x432 JUMPI PUSH2 0x42D PUSH32 0x6D4D544F5A6DCF38D77A232D3EF7358625C74877A1AD954FCB507872E7A05EAF SWAP2 DUP4 PUSH1 0x0 MSTORE PUSH1 0x0 PUSH1 0x20 MSTORE PUSH2 0x3E0 PUSH1 0x40 PUSH1 0x0 KECCAK256 SLOAD ISZERO ISZERO PUSH2 0x1FEB JUMP JUMPDEST PUSH1 0x0 DUP5 DUP2 MSTORE PUSH1 0x20 DUP2 SWAP1 MSTORE PUSH1 0x40 SWAP1 KECCAK256 PUSH1 0x6 DUP2 ADD DUP1 SLOAD PUSH2 0xFFFF NOT AND DUP4 ISZERO ISZERO PUSH1 0x8 SHL PUSH2 0xFF00 AND OR PUSH1 0x2 OR SWAP1 SSTORE JUMPDEST PUSH1 0x7 TIMESTAMP SWAP2 ADD SSTORE PUSH1 0x40 MLOAD SWAP2 DUP3 SWAP2 TIMESTAMP SWAP1 DUP4 PUSH1 0x20 SWAP1 SWAP4 SWAP3 SWAP2 SWAP4 PUSH1 0x40 DUP2 ADD SWAP5 ISZERO ISZERO DUP2 MSTORE ADD MSTORE JUMP JUMPDEST SUB SWAP1 LOG2 STOP JUMPDEST PUSH1 0x40 MLOAD PUSH3 0x461BCD PUSH1 0xE5 SHL DUP2 MSTORE PUSH1 0x20 PUSH1 0x4 DUP3 ADD MSTORE PUSH1 0x24 DUP1 DUP3 ADD MSTORE PUSH32 0x4F6E6C79206F776E6572206F7220677561726469616E732063616E206F766572 PUSH1 0x44 DUP3 ADD MSTORE PUSH4 0x72696465 PUSH1 0xE0 SHL PUSH1 0x64 DUP3 ADD MSTORE PUSH1 0x84 SWAP1 REVERT JUMPDEST POP CALLER PUSH1 0x0 MSTORE PUSH1 0x3 PUSH1 0x20 MSTORE PUSH1 0xFF PUSH1 0x40 PUSH1 0x0 KECCAK256 SLOAD AND PUSH2 0x39D JUMP JUMPDEST CALLVALUE PUSH2 0x12F JUMPI PUSH1 0x20 DUP1 PUSH1 0x3 NOT CALLDATASIZE ADD SLT PUSH2 0x12F JUMPI PUSH1 0x4 CALLDATALOAD SWAP1 DUP2 PUSH1 0x0 MSTORE PUSH1 0x0 DUP2 MSTORE PUSH1 0x40 PUSH1 0x0 KECCAK256 SWAP1 PUSH2 0x4CB DUP3 SLOAD ISZERO ISZERO PUSH2 0x1FEB JUMP JUMPDEST PUSH1 0x6 DUP3 ADD SWAP2 DUP3 SLOAD SWAP1 PUSH1 0xFF DUP3 AND PUSH1 0x4 DUP2 LT ISZERO PUSH2 0x364 JUMPI PUSH1 0x2 SUB PUSH2 0x67A JUMPI PUSH1 0x7 ADD SLOAD SWAP3 PUSH3 0x15180 SWAP4 DUP5 DUP2 ADD DUP1 SWAP2 GT PUSH2 0x2A8 JUMPI TIMESTAMP GT PUSH2 0x63C JUMPI DUP5 PUSH1 0x0 MSTORE PUSH1 0x6 DUP4 MSTORE PUSH1 0x40 PUSH1 0x0 KECCAK256 CALLER PUSH1 0x0 MSTORE DUP4 MSTORE PUSH2 0x53C PUSH1 0x40 PUSH1 0x0 KECCAK256 SLOAD DUP7 PUSH1 0x0 MSTORE PUSH1 0x7 DUP6 MSTORE PUSH1 0x40 PUSH1 0x0 KECCAK256 CALLER PUSH1 0x0 MSTORE DUP6 MSTORE PUSH1 0x40 PUSH1 0x0 KECCAK256 SLOAD SWAP1 PUSH2 0x1FDE JUMP JUMPDEST ISZERO DUP1 ISZERO SWAP1 PUSH2 0x628 JUMPI JUMPDEST DUP1 ISZERO PUSH2 0x611 JUMPI JUMPDEST ISZERO PUSH2 0x5B9 JUMPI PUSH1 0x3 PUSH1 0xFF NOT DUP1 SWAP4 AND OR SWAP1 SSTORE DUP4 PUSH1 0x0 MSTORE PUSH1 0x1 DUP3 MSTORE PUSH1 0x40 PUSH1 0x0 KECCAK256 SWAP3 TIMESTAMP ADD SWAP1 DUP2 TIMESTAMP GT PUSH2 0x2A8 JUMPI PUSH1 0x3 DUP5 DUP4 PUSH32 0x8084B73E6AE723BC9F733816340A6866BFF7C61BFAB84A512390F062589BCB47 SWAP7 SSTORE PUSH1 0x0 PUSH1 0x1 DUP3 ADD SSTORE PUSH1 0x0 PUSH1 0x2 DUP3 ADD SSTORE ADD SWAP1 DUP2 SLOAD AND SWAP1 SSTORE PUSH1 0x40 MLOAD SWAP1 DUP2 MSTORE LOG2 STOP JUMPDEST PUSH1 0x40 MLOAD PUSH3 0x461BCD PUSH1 0xE5 SHL DUP2 MSTORE PUSH1 0x4 DUP2 ADD DUP5 SWAP1 MSTORE PUSH1 0x2A PUSH1 0x24 DUP3 ADD MSTORE PUSH32 0x4D75737420686F6C6420736861726573206F7220626520677561726469616E20 PUSH1 0x44 DUP3 ADD MSTORE PUSH10 0x746F2064697370757465 PUSH1 0xB0 SHL PUSH1 0x64 DUP3 ADD MSTORE PUSH1 0x84 SWAP1 REVERT JUMPDEST POP CALLER PUSH1 0x0 MSTORE PUSH1 0x3 DUP4 MSTORE PUSH1 0xFF PUSH1 0x40 PUSH1 0x0 KECCAK256 SLOAD AND PUSH2 0x54C JUMP JUMPDEST POP PUSH1 0x5 SLOAD PUSH1 0x1 PUSH1 0x1 PUSH1 0xA0 SHL SUB AND CALLER EQ PUSH2 0x545 JUMP JUMPDEST PUSH1 0x40 MLOAD PUSH3 0x461BCD PUSH1 0xE5 SHL DUP2 MSTORE PUSH1 0x4 DUP2 ADD DUP5 SWAP1 MSTORE PUSH1 0x16 PUSH1 0x24 DUP3 ADD MSTORE PUSH22 0x111A5CDC1D5D19481DDA5B991BDDC8195E1C1A5C9959 PUSH1 0x52 SHL PUSH1 0x44 DUP3 ADD MSTORE PUSH1 0x64 SWAP1 REVERT JUMPDEST PUSH1 0x40 MLOAD PUSH3 0x461BCD PUSH1 0xE5 SHL DUP2 MSTORE PUSH1 0x4 DUP2 ADD DUP5 SWAP1 MSTORE PUSH1 0x22 PUSH1 0x24 DUP3 ADD MSTORE PUSH32 0x4D61726B6574206D757374206265207265736F6C76656420746F206469737075 PUSH1 0x44 DUP3 ADD MSTORE PUSH2 0x7465 PUSH1 0xF0 SHL PUSH1 0x64 DUP3 ADD MSTORE PUSH1 0x84 SWAP1 REVERT JUMPDEST CALLVALUE PUSH2 0x12F JUMPI PUSH1 0x20 CALLDATASIZE PUSH1 0x3 NOT ADD SLT PUSH2 0x12F JUMPI PUSH1 0x4 CALLDATALOAD PUSH1 0x0 MSTORE PUSH1 0x0 PUSH1 0x20 MSTORE PUSH1 0x40 PUSH1 0x0 KECCAK256 DUP1 SLOAD SWAP1 PUSH1 0x1 DUP2 ADD PUSH2 0x6FB SWAP1 PUSH2 0x1E9D JUMP JUMPDEST PUSH2 0x707 PUSH1 0x2 DUP4 ADD PUSH2 0x1E9D JUMP JUMPDEST SWAP1 PUSH1 0x3 DUP4 ADD SLOAD SWAP3 PUSH1 0x4 DUP2 ADD PUSH2 0x71B SWAP1 PUSH2 0x1E9D JUMP JUMPDEST PUSH1 0x5 DUP3 ADD SLOAD PUSH1 0x6 DUP4 ADD SLOAD PUSH1 0x7 DUP5 ADD SLOAD PUSH1 0xFF DUP3 AND SWAP8 SWAP2 SWAP4 PUSH2 0x73D PUSH1 0x8 DUP8 ADD PUSH2 0x1E9D JUMP JUMPDEST SWAP3 PUSH1 0x9 DUP8 ADD SLOAD SWAP9 PUSH1 0xA DUP9 ADD SLOAD SWAP8 PUSH1 0xB ADD SLOAD SWAP9 PUSH1 0x40 MLOAD SWAP13 DUP14 MSTORE DUP13 PUSH2 0x1A0 PUSH1 0x20 DUP2 SWAP3 ADD MSTORE DUP14 ADD PUSH2 0x76A SWAP2 PUSH2 0x1F43 JUMP JUMPDEST DUP13 DUP2 SUB PUSH1 0x40 DUP15 ADD MSTORE PUSH2 0x77B SWAP2 PUSH2 0x1F43 JUMP JUMPDEST SWAP1 PUSH1 0x60 DUP13 ADD MSTORE DUP11 DUP2 SUB PUSH1 0x80 DUP13 ADD MSTORE PUSH2 0x792 SWAP2 PUSH2 0x1F43 JUMP JUMPDEST SWAP3 PUSH1 0xA0 DUP11 ADD MSTORE PUSH1 0x4 DUP9 LT ISZERO PUSH2 0x364 JUMPI PUSH1 0xFF PUSH2 0x7CD SWAP5 DUP11 SWAP10 PUSH1 0xC0 DUP12 ADD MSTORE PUSH1 0x8 SHR AND ISZERO ISZERO PUSH1 0xE0 DUP10 ADD MSTORE PUSH2 0x100 DUP9 ADD MSTORE DUP7 DUP3 SUB PUSH2 0x120 DUP9 ADD MSTORE PUSH2 0x1F43 JUMP JUMPDEST SWAP3 PUSH2 0x140 DUP6 ADD MSTORE PUSH2 0x160 DUP5 ADD MSTORE PUSH2 0x180 DUP4 ADD MSTORE SUB SWAP1 RETURN JUMPDEST CALLVALUE PUSH2 0x12F JUMPI PUSH1 0x20 CALLDATASIZE PUSH1 0x3 NOT ADD SLT PUSH2 0x12F JUMPI PUSH2 0x7FD PUSH2 0x1D9F JUMP JUMPDEST PUSH1 0x5 SLOAD PUSH1 0x1 PUSH1 0x1 PUSH1 0xA0 SHL SUB SWAP2 SWAP1 PUSH2 0x817 SWAP1 DUP4 AND CALLER EQ PUSH2 0x1F83 JUMP JUMPDEST AND PUSH1 0x0 SWAP1 DUP2 MSTORE PUSH1 0x3 PUSH1 0x20 MSTORE PUSH1 0x40 SWAP1 KECCAK256 DUP1 SLOAD PUSH1 0xFF NOT AND PUSH1 0x1 OR SWAP1 SSTORE STOP JUMPDEST CALLVALUE PUSH2 0x12F JUMPI PUSH2 0x841 CALLDATASIZE PUSH2 0x1DCB JUMP JUMPDEST SWAP1 DUP1 PUSH1 0x0 MSTORE PUSH1 0x20 PUSH1 0x0 DUP2 MSTORE PUSH1 0xFF PUSH1 0x6 PUSH1 0x40 PUSH1 0x0 KECCAK256 ADD SLOAD AND PUSH1 0x4 DUP2 LT ISZERO PUSH2 0x364 JUMPI PUSH1 0x3 PUSH2 0x86D SWAP2 EQ PUSH2 0x202F JUMP JUMPDEST DUP2 PUSH1 0x0 MSTORE PUSH1 0x1 DUP1 DUP3 MSTORE PUSH1 0x40 PUSH1 0x0 KECCAK256 SLOAD TIMESTAMP LT ISZERO PUSH2 0x9DC JUMPI DUP3 PUSH1 0x0 MSTORE PUSH1 0x2 DUP3 MSTORE PUSH1 0x40 PUSH1 0x0 KECCAK256 CALLER PUSH1 0x0 MSTORE DUP3 MSTORE PUSH1 0xFF PUSH1 0x40 PUSH1 0x0 KECCAK256 SLOAD AND PUSH2 0x997 JUMPI PUSH32 0xF52487ECFB56E1EA5749008407AB5DB2967701BFE848F4D02183460D06A10BA3 SWAP2 PUSH2 0x967 SWAP2 DUP5 PUSH1 0x0 MSTORE PUSH1 0x6 DUP3 MSTORE PUSH1 0x40 PUSH1 0x0 KECCAK256 CALLER PUSH1 0x0 MSTORE DUP3 MSTORE PUSH2 0x904 PUSH1 0x40 PUSH1 0x0 KECCAK256 SLOAD DUP7 PUSH1 0x0 MSTORE PUSH1 0x7 DUP5 MSTORE PUSH1 0x40 PUSH1 0x0 KECCAK256 CALLER PUSH1 0x0 MSTORE DUP5 MSTORE PUSH1 0x40 PUSH1 0x0 KECCAK256 SLOAD SWAP1 PUSH2 0x1FDE JUMP JUMPDEST SWAP2 DUP3 ISZERO PUSH2 0x98D JUMPI JUMPDEST PUSH1 0x0 DUP7 DUP2 MSTORE PUSH1 0x2 DUP3 MSTORE PUSH1 0x40 DUP1 DUP3 KECCAK256 CALLER DUP4 MSTORE DUP4 MSTORE SWAP1 KECCAK256 DUP1 SLOAD PUSH1 0xFF NOT AND DUP4 OR SWAP1 SSTORE DUP2 SWAP1 DUP8 ISZERO PUSH2 0x96C JUMPI DUP7 PUSH1 0x0 MSTORE MSTORE PUSH1 0x40 PUSH1 0x0 KECCAK256 ADD PUSH2 0x949 DUP3 DUP3 SLOAD PUSH2 0x1FDE JUMP JUMPDEST SWAP1 SSTORE JUMPDEST PUSH1 0x40 DUP1 MLOAD SWAP6 ISZERO ISZERO DUP7 MSTORE PUSH1 0x20 DUP7 ADD SWAP2 SWAP1 SWAP2 MSTORE CALLER SWAP5 SWAP2 DUP3 SWAP2 DUP3 ADD SWAP1 JUMP JUMPDEST SUB SWAP1 LOG3 STOP JUMPDEST SWAP1 POP DUP6 PUSH1 0x0 MSTORE MSTORE PUSH1 0x2 PUSH1 0x40 PUSH1 0x0 KECCAK256 ADD PUSH2 0x986 DUP3 DUP3 SLOAD PUSH2 0x1FDE JUMP JUMPDEST SWAP1 SSTORE PUSH2 0x94C JUMP JUMPDEST SWAP1 SWAP2 POP DUP2 SWAP1 PUSH2 0x90C JUMP JUMPDEST PUSH1 0x40 MLOAD PUSH3 0x461BCD PUSH1 0xE5 SHL DUP2 MSTORE PUSH1 0x4 DUP2 ADD DUP4 SWAP1 MSTORE PUSH1 0x1D PUSH1 0x24 DUP3 ADD MSTORE PUSH32 0x416C726561647920766F746564206F6E20746869732064697370757465000000 PUSH1 0x44 DUP3 ADD MSTORE PUSH1 0x64 SWAP1 REVERT JUMPDEST PUSH1 0x40 MLOAD PUSH3 0x461BCD PUSH1 0xE5 SHL DUP2 MSTORE PUSH1 0x4 DUP2 ADD DUP4 SWAP1 MSTORE PUSH1 0x1C PUSH1 0x24 DUP3 ADD MSTORE PUSH32 0x4469737075746520766F74696E672077696E646F7720636C6F73656400000000 PUSH1 0x44 DUP3 ADD MSTORE PUSH1 0x64 SWAP1 REVERT JUMPDEST CALLVALUE PUSH2 0x12F JUMPI PUSH1 0x40 CALLDATASIZE PUSH1 0x3 NOT ADD SLT PUSH2 0x12F JUMPI PUSH2 0xA3A PUSH2 0x1DB5 JUMP JUMPDEST PUSH1 0x4 CALLDATALOAD PUSH1 0x0 MSTORE PUSH1 0x6 PUSH1 0x20 MSTORE PUSH1 0x40 PUSH1 0x0 KECCAK256 SWAP1 PUSH1 0x1 DUP1 PUSH1 0xA0 SHL SUB AND PUSH1 0x0 MSTORE PUSH1 0x20 MSTORE PUSH1 0x20 PUSH1 0x40 PUSH1 0x0 KECCAK256 SLOAD PUSH1 0x40 MLOAD SWAP1 DUP2 MSTORE RETURN JUMPDEST CALLVALUE PUSH2 0x12F JUMPI PUSH1 0x40 CALLDATASIZE PUSH1 0x3 NOT ADD SLT PUSH2 0x12F JUMPI PUSH2 0xA82 PUSH2 0x1DB5 JUMP JUMPDEST PUSH1 0x4 CALLDATALOAD PUSH1 0x0 MSTORE PUSH1 0x8 PUSH1 0x20 MSTORE PUSH1 0x40 PUSH1 0x0 KECCAK256 SWAP1 PUSH1 0x1 DUP1 PUSH1 0xA0 SHL SUB AND PUSH1 0x0 MSTORE PUSH1 0x20 MSTORE PUSH1 0x20 PUSH1 0xFF PUSH1 0x40 PUSH1 0x0 KECCAK256 SLOAD AND PUSH1 0x40 MLOAD SWAP1 ISZERO ISZERO DUP2 MSTORE RETURN JUMPDEST CALLVALUE PUSH2 0x12F JUMPI PUSH1 0xA0 CALLDATASIZE PUSH1 0x3 NOT ADD SLT PUSH2 0x12F JUMPI PUSH1 0x4 CALLDATALOAD PUSH8 0xFFFFFFFFFFFFFFFF DUP2 GT PUSH2 0x12F JUMPI PUSH2 0xAE7 SWAP1 CALLDATASIZE SWAP1 PUSH1 0x4 ADD PUSH2 0x1E0C JUMP JUMPDEST PUSH1 0x24 CALLDATALOAD PUSH8 0xFFFFFFFFFFFFFFFF DUP2 GT PUSH2 0x12F JUMPI PUSH2 0xB07 SWAP1 CALLDATASIZE SWAP1 PUSH1 0x4 ADD PUSH2 0x1E0C JUMP JUMPDEST SWAP1 PUSH1 0x44 CALLDATALOAD PUSH1 0x64 CALLDATALOAD PUSH8 0xFFFFFFFFFFFFFFFF DUP2 GT PUSH2 0x12F JUMPI PUSH2 0xB2B SWAP1 CALLDATASIZE SWAP1 PUSH1 0x4 ADD PUSH2 0x1E0C JUMP JUMPDEST SWAP1 PUSH2 0xB41 PUSH1 0x1 DUP1 PUSH1 0xA0 SHL SUB PUSH1 0x5 SLOAD AND CALLER EQ PUSH2 0x1F83 JUMP JUMPDEST PUSH2 0xB4C PUSH1 0x4 SLOAD PUSH2 0x1FCF JUMP JUMPDEST SWAP1 DUP2 PUSH1 0x4 SSTORE PUSH4 0x3B9ACA00 DUP2 GT PUSH1 0x0 EQ PUSH2 0x119A JUMPI SWAP2 JUMPDEST PUSH1 0x40 MLOAD SWAP5 PUSH2 0x1A0 DUP7 ADD DUP7 DUP2 LT PUSH8 0xFFFFFFFFFFFFFFFF DUP3 GT OR PUSH2 0xF14 JUMPI PUSH1 0x40 MSTORE DUP3 DUP7 MSTORE DUP5 PUSH1 0x20 DUP8 ADD MSTORE PUSH1 0x40 DUP7 ADD MSTORE DUP3 PUSH1 0x60 DUP7 ADD MSTORE PUSH1 0x80 DUP6 ADD MSTORE PUSH1 0x84 CALLDATALOAD PUSH1 0xA0 DUP6 ADD MSTORE PUSH1 0x0 PUSH1 0xC0 DUP6 ADD MSTORE PUSH1 0x0 PUSH1 0xE0 DUP6 ADD MSTORE PUSH1 0x0 PUSH2 0x100 DUP6 ADD MSTORE PUSH1 0x40 MLOAD DUP1 PUSH1 0x20 DUP2 ADD LT PUSH8 0xFFFFFFFFFFFFFFFF PUSH1 0x20 DUP4 ADD GT OR PUSH2 0xF14 JUMPI PUSH1 0x20 DUP2 ADD PUSH1 0x40 MSTORE PUSH1 0x0 DUP2 MSTORE PUSH2 0x120 DUP6 ADD MSTORE PUSH1 0x0 PUSH2 0x140 DUP6 ADD MSTORE PUSH1 0x0 PUSH2 0x160 DUP6 ADD MSTORE PUSH1 0x0 PUSH2 0x180 DUP6 ADD MSTORE PUSH1 0x0 MSTORE PUSH1 0x0 PUSH1 0x20 MSTORE PUSH1 0x40 PUSH1 0x0 KECCAK256 DUP4 MLOAD DUP2 SSTORE PUSH1 0x20 DUP5 ADD MLOAD DUP1 MLOAD SWAP1 PUSH8 0xFFFFFFFFFFFFFFFF DUP3 GT PUSH2 0xF14 JUMPI DUP2 SWAP1 PUSH2 0xC33 PUSH1 0x1 DUP6 ADD SLOAD PUSH2 0x1E63 JUMP JUMPDEST PUSH1 0x1F DUP2 GT PUSH2 0x1147 JUMPI JUMPDEST POP PUSH1 0x20 SWAP1 PUSH1 0x1F DUP4 GT PUSH1 0x1 EQ PUSH2 0x10D5 JUMPI PUSH1 0x0 SWAP3 PUSH2 0x10CA JUMPI JUMPDEST POP POP DUP2 PUSH1 0x1 SHL SWAP2 PUSH1 0x0 NOT SWAP1 PUSH1 0x3 SHL SHR NOT AND OR PUSH1 0x1 DUP3 ADD SSTORE JUMPDEST PUSH1 0x40 DUP5 ADD MLOAD DUP1 MLOAD SWAP1 PUSH8 0xFFFFFFFFFFFFFFFF DUP3 GT PUSH2 0xF14 JUMPI DUP2 SWAP1 PUSH2 0xC91 PUSH1 0x2 DUP6 ADD SLOAD PUSH2 0x1E63 JUMP JUMPDEST PUSH1 0x1F DUP2 GT PUSH2 0x1077 JUMPI JUMPDEST POP PUSH1 0x20 SWAP1 PUSH1 0x1F DUP4 GT PUSH1 0x1 EQ PUSH2 0x1005 JUMPI PUSH1 0x0 SWAP3 PUSH2 0xFFA JUMPI JUMPDEST POP POP DUP2 PUSH1 0x1 SHL SWAP2 PUSH1 0x0 NOT SWAP1 PUSH1 0x3 SHL SHR NOT AND OR PUSH1 0x2 DUP3 ADD SSTORE JUMPDEST PUSH1 0x60 DUP5 ADD MLOAD PUSH1 0x3 DUP3 ADD SSTORE PUSH1 0x80 DUP5 ADD MLOAD DUP1 MLOAD SWAP1 PUSH8 0xFFFFFFFFFFFFFFFF DUP3 GT PUSH2 0xF14 JUMPI DUP2 SWAP1 PUSH2 0xCF9 PUSH1 0x4 DUP6 ADD SLOAD PUSH2 0x1E63 JUMP JUMPDEST PUSH1 0x1F DUP2 GT PUSH2 0xFA7 JUMPI JUMPDEST POP PUSH1 0x20 SWAP1 PUSH1 0x1F DUP4 GT PUSH1 0x1 EQ PUSH2 0xF35 JUMPI PUSH1 0x0 SWAP3 PUSH2 0xF2A JUMPI JUMPDEST POP POP DUP2 PUSH1 0x1 SHL SWAP2 PUSH1 0x0 NOT SWAP1 PUSH1 0x3 SHL SHR NOT AND OR PUSH1 0x4 DUP3 ADD SSTORE JUMPDEST PUSH1 0xA0 DUP5 ADD MLOAD PUSH1 0x5 DUP3 ADD SSTORE PUSH1 0xC0 DUP5 ADD MLOAD PUSH1 0x6 DUP3 ADD PUSH1 0x4 DUP3 LT ISZERO PUSH2 0x364 JUMPI DUP1 SLOAD PUSH1 0xE0 DUP8 ADD MLOAD PUSH2 0xFF00 SWAP1 ISZERO ISZERO PUSH1 0x8 SHL AND PUSH1 0xFF SWAP4 SWAP1 SWAP4 AND PUSH2 0xFFFF NOT SWAP1 SWAP2 AND OR SWAP2 SWAP1 SWAP2 OR SWAP1 SSTORE PUSH2 0x100 DUP5 ADD MLOAD PUSH1 0x7 DUP3 ADD SSTORE PUSH2 0x120 DUP5 ADD MLOAD SWAP4 DUP5 MLOAD PUSH8 0xFFFFFFFFFFFFFFFF DUP2 GT PUSH2 0xF14 JUMPI PUSH2 0xDA2 PUSH1 0x8 DUP5 ADD SLOAD PUSH2 0x1E63 JUMP JUMPDEST SWAP6 PUSH1 0x1F DUP8 GT PUSH2 0xECD JUMPI JUMPDEST PUSH1 0x20 SWAP7 POP DUP7 SWAP1 PUSH1 0x1F DUP4 GT PUSH1 0x1 EQ PUSH2 0xE5B JUMPI SWAP2 DUP1 PUSH1 0xB SWAP5 SWAP3 PUSH2 0x180 SWAP5 PUSH1 0x0 SWAP3 PUSH2 0xE50 JUMPI JUMPDEST POP POP DUP2 PUSH1 0x1 SHL SWAP2 PUSH1 0x0 NOT SWAP1 PUSH1 0x3 SHL SHR NOT AND OR PUSH1 0x8 DUP6 ADD SSTORE JUMPDEST PUSH2 0x140 DUP2 ADD MLOAD PUSH1 0x9 DUP6 ADD SSTORE PUSH2 0x160 DUP2 ADD MLOAD PUSH1 0xA DUP6 ADD SSTORE ADD MLOAD SWAP2 ADD SSTORE PUSH32 0x2D1E9AD45DBE8E898E0374DEEBF2A661B2AE7C1855D2A29507D584C35D287C75 PUSH2 0xE40 PUSH1 0x4 SLOAD SWAP4 DUP5 SWAP4 PUSH1 0x40 MLOAD SWAP3 DUP4 SWAP3 PUSH1 0x40 DUP5 MSTORE PUSH1 0x40 DUP5 ADD SWAP1 PUSH2 0x1F43 JUMP JUMPDEST SWAP1 DUP8 DUP4 ADD MSTORE SUB SWAP1 LOG2 PUSH1 0x40 MLOAD SWAP1 DUP2 MSTORE RETURN JUMPDEST ADD MLOAD SWAP1 POP DUP10 DUP1 PUSH2 0xDCF JUMP JUMPDEST SWAP1 PUSH1 0x1F NOT DUP4 AND SWAP2 PUSH1 0x8 DUP7 ADD PUSH1 0x0 MSTORE DUP9 PUSH1 0x0 KECCAK256 SWAP3 PUSH1 0x0 JUMPDEST DUP2 DUP2 LT PUSH2 0xEB6 JUMPI POP SWAP3 PUSH1 0x1 SWAP3 DUP6 SWAP3 PUSH2 0x180 SWAP7 PUSH1 0xB SWAP9 SWAP7 LT PUSH2 0xE9D JUMPI JUMPDEST POP POP POP DUP2 SHL ADD PUSH1 0x8 DUP6 ADD SSTORE PUSH2 0xDE7 JUMP JUMPDEST ADD MLOAD PUSH1 0x0 NOT PUSH1 0xF8 DUP5 PUSH1 0x3 SHL AND SHR NOT AND SWAP1 SSTORE DUP10 DUP1 DUP1 PUSH2 0xE8D JUMP JUMPDEST SWAP3 SWAP4 DUP11 PUSH1 0x1 DUP2 SWAP3 DUP8 DUP7 ADD MLOAD DUP2 SSTORE ADD SWAP6 ADD SWAP4 ADD PUSH2 0xE71 JUMP JUMPDEST PUSH1 0x8 DUP5 ADD PUSH1 0x0 MSTORE PUSH1 0x20 PUSH1 0x0 KECCAK256 PUSH1 0x1F DUP4 ADD PUSH1 0x5 SHR DUP2 ADD PUSH1 0x20 DUP5 LT PUSH2 0xF0D JUMPI JUMPDEST PUSH1 0x1F DUP10 ADD PUSH1 0x5 SHR DUP3 ADD DUP2 LT PUSH2 0xF01 JUMPI POP POP PUSH2 0xDAC JUMP JUMPDEST PUSH1 0x0 DUP2 SSTORE PUSH1 0x1 ADD PUSH2 0xEEB JUMP JUMPDEST POP DUP1 PUSH2 0xEEB JUMP JUMPDEST PUSH4 0x4E487B71 PUSH1 0xE0 SHL PUSH1 0x0 MSTORE PUSH1 0x41 PUSH1 0x4 MSTORE PUSH1 0x24 PUSH1 0x0 REVERT JUMPDEST ADD MLOAD SWAP1 POP DUP7 DUP1 PUSH2 0xD19 JUMP JUMPDEST SWAP3 POP PUSH1 0x4 DUP5 ADD PUSH1 0x0 MSTORE PUSH1 0x20 PUSH1 0x0 KECCAK256 SWAP1 PUSH1 0x0 SWAP4 JUMPDEST PUSH1 0x1F NOT DUP5 AND DUP6 LT PUSH2 0xF8C JUMPI PUSH1 0x1 SWAP5 POP DUP4 PUSH1 0x1F NOT DUP2 AND LT PUSH2 0xF73 JUMPI JUMPDEST POP POP POP DUP2 SHL ADD PUSH1 0x4 DUP3 ADD SSTORE PUSH2 0xD31 JUMP JUMPDEST ADD MLOAD PUSH1 0x0 NOT PUSH1 0xF8 DUP5 PUSH1 0x3 SHL AND SHR NOT AND SWAP1 SSTORE DUP7 DUP1 DUP1 PUSH2 0xF63 JUMP JUMPDEST DUP2 DUP2 ADD MLOAD DUP4 SSTORE PUSH1 0x20 SWAP5 DUP6 ADD SWAP5 PUSH1 0x1 SWAP1 SWAP4 ADD SWAP3 SWAP1 SWAP2 ADD SWAP1 PUSH2 0xF48 JUMP JUMPDEST SWAP1 SWAP2 POP PUSH1 0x4 DUP5 ADD PUSH1 0x0 MSTORE PUSH1 0x20 PUSH1 0x0 KECCAK256 PUSH1 0x1F DUP5 ADD PUSH1 0x5 SHR DUP2 ADD PUSH1 0x20 DUP6 LT PUSH2 0xFF3 JUMPI JUMPDEST SWAP1 DUP5 SWAP4 SWAP3 SWAP2 JUMPDEST PUSH1 0x1F DUP4 ADD PUSH1 0x5 SHR DUP3 ADD DUP2 LT PUSH2 0xFE4 JUMPI POP POP PUSH2 0xD02 JUMP JUMPDEST PUSH1 0x0 DUP2 SSTORE DUP6 SWAP5 POP PUSH1 0x1 ADD PUSH2 0xFCE JUMP JUMPDEST POP DUP1 PUSH2 0xFC8 JUMP JUMPDEST ADD MLOAD SWAP1 POP DUP7 DUP1 PUSH2 0xCB1 JUMP JUMPDEST SWAP3 POP PUSH1 0x2 DUP5 ADD PUSH1 0x0 MSTORE PUSH1 0x20 PUSH1 0x0 KECCAK256 SWAP1 PUSH1 0x0 SWAP4 JUMPDEST PUSH1 0x1F NOT DUP5 AND DUP6 LT PUSH2 0x105C JUMPI PUSH1 0x1 SWAP5 POP DUP4 PUSH1 0x1F NOT DUP2 AND LT PUSH2 0x1043 JUMPI JUMPDEST POP POP POP DUP2 SHL ADD PUSH1 0x2 DUP3 ADD SSTORE PUSH2 0xCC9 JUMP JUMPDEST ADD MLOAD PUSH1 0x0 NOT PUSH1 0xF8 DUP5 PUSH1 0x3 SHL AND SHR NOT AND SWAP1 SSTORE DUP7 DUP1 DUP1 PUSH2 0x1033 JUMP JUMPDEST DUP2 DUP2 ADD MLOAD DUP4 SSTORE PUSH1 0x20 SWAP5 DUP6 ADD SWAP5 PUSH1 0x1 SWAP1 SWAP4 ADD SWAP3 SWAP1 SWAP2 ADD SWAP1 PUSH2 0x1018 JUMP JUMPDEST SWAP1 SWAP2 POP PUSH1 0x2 DUP5 ADD PUSH1 0x0 MSTORE PUSH1 0x20 PUSH1 0x0 KECCAK256 PUSH1 0x1F DUP5 ADD PUSH1 0x5 SHR DUP2 ADD PUSH1 0x20 DUP6 LT PUSH2 0x10C3 JUMPI JUMPDEST SWAP1 DUP5 SWAP4 SWAP3 SWAP2 JUMPDEST PUSH1 0x1F DUP4 ADD PUSH1 0x5 SHR DUP3 ADD DUP2 LT PUSH2 0x10B4 JUMPI POP POP PUSH2 0xC9A JUMP JUMPDEST PUSH1 0x0 DUP2 SSTORE DUP6 SWAP5 POP PUSH1 0x1 ADD PUSH2 0x109E JUMP JUMPDEST POP DUP1 PUSH2 0x1098 JUMP JUMPDEST ADD MLOAD SWAP1 POP DUP7 DUP1 PUSH2 0xC53 JUMP JUMPDEST SWAP3 POP PUSH1 0x1 DUP5 ADD PUSH1 0x0 MSTORE PUSH1 0x20 PUSH1 0x0 KECCAK256 SWAP1 PUSH1 0x0 SWAP4 JUMPDEST PUSH1 0x1F NOT DUP5 AND DUP6 LT PUSH2 0x112C JUMPI PUSH1 0x1 SWAP5 POP DUP4 PUSH1 0x1F NOT DUP2 AND LT PUSH2 0x1113 JUMPI JUMPDEST POP POP POP DUP2 SHL ADD PUSH1 0x1 DUP3 ADD SSTORE PUSH2 0xC6B JUMP JUMPDEST ADD MLOAD PUSH1 0x0 NOT PUSH1 0xF8 DUP5 PUSH1 0x3 SHL AND SHR NOT AND SWAP1 SSTORE DUP7 DUP1 DUP1 PUSH2 0x1103 JUMP JUMPDEST DUP2 DUP2 ADD MLOAD DUP4 SSTORE PUSH1 0x20 SWAP5 DUP6 ADD SWAP5 PUSH1 0x1 SWAP1 SWAP4 ADD SWAP3 SWAP1 SWAP2 ADD SWAP1 PUSH2 0x10E8 JUMP JUMPDEST SWAP1 SWAP2 POP PUSH1 0x1 DUP5 ADD PUSH1 0x0 MSTORE PUSH1 0x20 PUSH1 0x0 KECCAK256 PUSH1 0x1F DUP5 ADD PUSH1 0x5 SHR DUP2 ADD PUSH1 0x20 DUP6 LT PUSH2 0x1193 JUMPI JUMPDEST SWAP1 DUP5 SWAP4 SWAP3 SWAP2 JUMPDEST PUSH1 0x1F DUP4 ADD PUSH1 0x5 SHR DUP3 ADD DUP2 LT PUSH2 0x1184 JUMPI POP POP PUSH2 0xC3C JUMP JUMPDEST PUSH1 0x0 DUP2 SSTORE DUP6 SWAP5 POP PUSH1 0x1 ADD PUSH2 0x116E JUMP JUMPDEST POP DUP1 PUSH2 0x1168 JUMP JUMPDEST PUSH2 0x11A4 SWAP1 TIMESTAMP PUSH2 0x1FDE JUMP JUMPDEST SWAP2 PUSH2 0xB61 JUMP JUMPDEST CALLVALUE PUSH2 0x12F JUMPI PUSH1 0x20 PUSH2 0x11C3 PUSH2 0x11BD CALLDATASIZE PUSH2 0x1DCB JUMP JUMPDEST SWAP1 PUSH2 0x217E JUMP JUMPDEST PUSH1 0x40 MLOAD SWAP1 DUP2 MSTORE RETURN JUMPDEST CALLVALUE PUSH2 0x12F JUMPI PUSH1 0x0 CALLDATASIZE PUSH1 0x3 NOT ADD SLT PUSH2 0x12F JUMPI PUSH1 0x5 SLOAD PUSH1 0x40 MLOAD PUSH1 0x1 PUSH1 0x1 PUSH1 0xA0 SHL SUB SWAP1 SWAP2 AND DUP2 MSTORE PUSH1 0x20 SWAP1 RETURN JUMPDEST CALLVALUE PUSH2 0x12F JUMPI PUSH1 0x40 CALLDATASIZE PUSH1 0x3 NOT ADD SLT PUSH2 0x12F JUMPI PUSH2 0x120D PUSH2 0x1DB5 JUMP JUMPDEST PUSH1 0x4 CALLDATALOAD PUSH1 0x0 MSTORE PUSH1 0x7 PUSH1 0x20 MSTORE PUSH1 0x40 PUSH1 0x0 KECCAK256 SWAP1 PUSH1 0x1 DUP1 PUSH1 0xA0 SHL SUB AND PUSH1 0x0 MSTORE PUSH1 0x20 MSTORE PUSH1 0x20 PUSH1 0x40 PUSH1 0x0 KECCAK256 SLOAD PUSH1 0x40 MLOAD SWAP1 DUP2 MSTORE RETURN JUMPDEST CALLVALUE PUSH2 0x12F JUMPI PUSH1 0x20 CALLDATASIZE PUSH1 0x3 NOT ADD SLT PUSH2 0x12F JUMPI PUSH2 0x1255 PUSH2 0x1D9F JUMP JUMPDEST PUSH1 0x5 SLOAD PUSH1 0x1 PUSH1 0x1 PUSH1 0xA0 SHL SUB SWAP2 SWAP1 PUSH2 0x126F SWAP1 DUP4 AND CALLER EQ PUSH2 0x1F83 JUMP JUMPDEST AND PUSH1 0x0 SWAP1 DUP2 MSTORE PUSH1 0x3 PUSH1 0x20 MSTORE PUSH1 0x40 SWAP1 KECCAK256 DUP1 SLOAD PUSH1 0xFF NOT AND SWAP1 SSTORE STOP JUMPDEST CALLVALUE PUSH2 0x12F JUMPI PUSH2 0x1296 CALLDATASIZE PUSH2 0x1DCB JUMP JUMPDEST PUSH2 0x12AB PUSH1 0x1 DUP1 PUSH1 0xA0 SHL SUB PUSH1 0x5 SLOAD AND CALLER EQ PUSH2 0x1F83 JUMP JUMPDEST DUP2 PUSH1 0x0 MSTORE PUSH1 0x0 PUSH1 0x20 MSTORE PUSH2 0x12C4 PUSH1 0x40 PUSH1 0x0 KECCAK256 SLOAD ISZERO ISZERO PUSH2 0x1FEB JUMP JUMPDEST DUP2 PUSH1 0x0 MSTORE PUSH1 0x0 PUSH1 0x20 MSTORE PUSH1 0xFF PUSH1 0x6 PUSH1 0x40 PUSH1 0x0 KECCAK256 ADD SLOAD AND PUSH1 0x4 DUP2 LT ISZERO PUSH2 0x364 JUMPI ISZERO DUP1 ISZERO PUSH2 0x1388 JUMPI JUMPDEST ISZERO PUSH2 0x1343 JUMPI PUSH1 0x0 DUP3 DUP2 MSTORE PUSH1 0x20 DUP2 SWAP1 MSTORE PUSH1 0x40 SWAP1 KECCAK256 PUSH1 0x6 DUP2 ADD DUP1 SLOAD PUSH2 0xFFFF NOT AND DUP4 ISZERO ISZERO PUSH1 0x8 SHL PUSH2 0xFF00 AND OR PUSH1 0x2 OR SWAP1 SSTORE PUSH32 0x6D4D544F5A6DCF38D77A232D3EF7358625C74877A1AD954FCB507872E7A05EAF SWAP2 PUSH2 0x42D SWAP2 PUSH2 0x40A JUMP JUMPDEST PUSH1 0x40 MLOAD PUSH3 0x461BCD PUSH1 0xE5 SHL DUP2 MSTORE PUSH1 0x20 PUSH1 0x4 DUP3 ADD MSTORE PUSH1 0x17 PUSH1 0x24 DUP3 ADD MSTORE PUSH32 0x4D61726B657420616C7265616479207265736F6C766564000000000000000000 PUSH1 0x44 DUP3 ADD MSTORE PUSH1 0x64 SWAP1 REVERT JUMPDEST POP DUP2 PUSH1 0x0 MSTORE PUSH1 0x0 PUSH1 0x20 MSTORE PUSH1 0xFF PUSH1 0x6 PUSH1 0x40 PUSH1 0x0 KECCAK256 ADD SLOAD AND PUSH1 0x4 DUP2 LT ISZERO PUSH2 0x364 JUMPI PUSH1 0x1 EQ PUSH2 0x12EA JUMP JUMPDEST CALLVALUE PUSH2 0x12F JUMPI PUSH1 0x20 DUP1 PUSH1 0x3 NOT CALLDATASIZE ADD SLT PUSH2 0x12F JUMPI PUSH1 0x4 CALLDATALOAD SWAP1 DUP2 PUSH1 0x0 MSTORE PUSH1 0x0 DUP2 MSTORE PUSH1 0x40 PUSH1 0x0 KECCAK256 PUSH1 0x6 DUP2 ADD PUSH1 0xFF DUP2 SLOAD AND PUSH1 0x4 DUP2 LT ISZERO PUSH2 0x364 JUMPI PUSH1 0x3 PUSH2 0x13F0 SWAP2 EQ PUSH2 0x202F JUMP JUMPDEST DUP4 PUSH1 0x0 MSTORE PUSH1 0x1 DUP4 MSTORE PUSH1 0x40 PUSH1 0x0 KECCAK256 SWAP1 DUP2 SLOAD TIMESTAMP LT DUP1 ISZERO SWAP1 PUSH2 0x156A JUMPI JUMPDEST DUP1 ISZERO PUSH2 0x1553 JUMPI JUMPDEST ISZERO PUSH2 0x150E JUMPI PUSH1 0x3 DUP3 ADD SWAP2 DUP3 SLOAD SWAP3 PUSH1 0xFF DUP5 AND PUSH2 0x14C9 JUMPI PUSH1 0xFF NOT SWAP1 SWAP4 AND PUSH1 0x1 SWAP1 DUP2 OR SWAP1 SWAP4 SSTORE SWAP2 DUP3 ADD SLOAD PUSH1 0x2 SWAP3 DUP4 ADD SLOAD DUP3 SLOAD PUSH2 0xFFFF NOT AND SWAP2 LT ISZERO PUSH1 0x8 DUP2 SWAP1 SHL PUSH2 0xFF00 AND SWAP2 SWAP1 SWAP2 OR SWAP1 SWAP3 OR SWAP1 SSTORE PUSH32 0x6D4D544F5A6DCF38D77A232D3EF7358625C74877A1AD954FCB507872E7A05EAF SWAP3 PUSH2 0x42D SWAP3 DUP6 SWAP2 PUSH32 0x6094CAF45C2924DA34DD706C33F09EC619587BAC9144486D8F82B0316E47E7B3 SWAP2 PUSH1 0x7 TIMESTAMP SWAP2 ADD SSTORE PUSH1 0x40 MLOAD DUP5 DUP2 MSTORE LOG2 PUSH1 0x40 DUP1 MLOAD SWAP2 ISZERO ISZERO DUP3 MSTORE TIMESTAMP PUSH1 0x20 DUP4 ADD MSTORE SWAP1 SWAP2 DUP3 SWAP2 DUP3 ADD SWAP1 JUMP JUMPDEST PUSH1 0x40 MLOAD PUSH3 0x461BCD PUSH1 0xE5 SHL DUP2 MSTORE PUSH1 0x4 DUP2 ADD DUP8 SWAP1 MSTORE PUSH1 0x19 PUSH1 0x24 DUP3 ADD MSTORE PUSH32 0x4469737075746520616C72656164792066696E616C697A656400000000000000 PUSH1 0x44 DUP3 ADD MSTORE PUSH1 0x64 SWAP1 REVERT JUMPDEST PUSH1 0x40 MLOAD PUSH3 0x461BCD PUSH1 0xE5 SHL DUP2 MSTORE PUSH1 0x4 DUP2 ADD DUP6 SWAP1 MSTORE PUSH1 0x18 PUSH1 0x24 DUP3 ADD MSTORE PUSH32 0x566F74696E672077696E646F77207374696C6C206F70656E0000000000000000 PUSH1 0x44 DUP3 ADD MSTORE PUSH1 0x64 SWAP1 REVERT JUMPDEST POP CALLER PUSH1 0x0 MSTORE PUSH1 0x3 DUP5 MSTORE PUSH1 0xFF PUSH1 0x40 PUSH1 0x0 KECCAK256 SLOAD AND PUSH2 0x1411 JUMP JUMPDEST POP PUSH1 0x5 SLOAD PUSH1 0x1 PUSH1 0x1 PUSH1 0xA0 SHL SUB AND CALLER EQ PUSH2 0x140A JUMP JUMPDEST CALLVALUE PUSH2 0x12F JUMPI PUSH1 0x20 CALLDATASIZE PUSH1 0x3 NOT ADD SLT PUSH2 0x12F JUMPI PUSH1 0x4 CALLDATALOAD PUSH1 0x0 MSTORE PUSH1 0x1 PUSH1 0x20 MSTORE PUSH1 0x80 PUSH1 0x40 PUSH1 0x0 KECCAK256 DUP1 SLOAD SWAP1 PUSH1 0x1 DUP2 ADD SLOAD SWAP1 PUSH1 0xFF PUSH1 0x3 PUSH1 0x2 DUP4 ADD SLOAD SWAP3 ADD SLOAD AND SWAP2 PUSH1 0x40 MLOAD SWAP4 DUP5 MSTORE PUSH1 0x20 DUP5 ADD MSTORE PUSH1 0x40 DUP4 ADD MSTORE ISZERO ISZERO PUSH1 0x60 DUP3 ADD MSTORE RETURN JUMPDEST CALLVALUE PUSH2 0x12F JUMPI PUSH1 0x0 CALLDATASIZE PUSH1 0x3 NOT ADD SLT PUSH2 0x12F JUMPI PUSH1 0x1 DUP1 DUP1 JUMPDEST PUSH2 0x15ED JUMPI STOP JUMPDEST PUSH1 0x4 SLOAD DUP2 GT PUSH2 0x1696 JUMPI DUP1 PUSH1 0x0 MSTORE PUSH1 0x20 SWAP1 PUSH1 0x0 DUP3 MSTORE PUSH1 0x6 SWAP1 PUSH1 0xFF DUP3 PUSH1 0x40 PUSH1 0x0 KECCAK256 ADD SLOAD AND SWAP2 PUSH1 0x4 DUP4 LT ISZERO PUSH2 0x364 JUMPI DUP5 SWAP4 PUSH2 0x1632 SWAP4 ISZERO DUP1 PUSH2 0x167C JUMPI JUMPDEST PUSH2 0x1638 JUMPI JUMPDEST POP POP PUSH2 0x1FCF JUMP JUMPDEST SWAP1 PUSH2 0x15E7 JUMP JUMPDEST PUSH1 0x0 SWAP1 DUP4 DUP3 MSTORE MSTORE PUSH1 0x40 PUSH1 0x0 KECCAK256 ADD DUP4 PUSH1 0xFF NOT DUP3 SLOAD AND OR SWAP1 SSTORE DUP1 PUSH32 0xC13CC0CA705B4D1ABD2086AF97770C25121AC873906044D59CC2C8CF61885289 PUSH1 0x0 DUP1 LOG2 DUP5 DUP1 PUSH2 0x162B JUMP JUMPDEST POP DUP3 PUSH1 0x0 MSTORE PUSH1 0x0 DUP2 MSTORE PUSH1 0x3 PUSH1 0x40 PUSH1 0x0 KECCAK256 ADD SLOAD TIMESTAMP LT ISZERO PUSH2 0x1626 JUMP JUMPDEST STOP JUMPDEST CALLVALUE PUSH2 0x12F JUMPI PUSH1 0x20 DUP1 PUSH1 0x3 NOT CALLDATASIZE ADD SLT PUSH2 0x12F JUMPI PUSH1 0x4 CALLDATALOAD DUP1 PUSH1 0x0 MSTORE PUSH1 0x0 DUP3 MSTORE PUSH1 0x40 PUSH1 0x0 KECCAK256 PUSH2 0x16C6 DUP2 SLOAD ISZERO ISZERO PUSH2 0x1FEB JUMP JUMPDEST PUSH1 0xFF PUSH1 0x6 DUP3 ADD SLOAD AND PUSH1 0x4 DUP2 LT ISZERO PUSH2 0x364 JUMPI PUSH2 0x16E1 SWAP1 ISZERO PUSH2 0x207B JUMP JUMPDEST DUP2 PUSH1 0x0 MSTORE PUSH1 0x6 DUP4 MSTORE PUSH1 0x40 PUSH1 0x0 KECCAK256 CALLER PUSH1 0x0 MSTORE DUP4 MSTORE PUSH1 0x40 PUSH1 0x0 KECCAK256 SLOAD DUP3 PUSH1 0x0 MSTORE PUSH1 0x7 DUP5 MSTORE PUSH1 0x40 PUSH1 0x0 KECCAK256 CALLER PUSH1 0x0 MSTORE DUP5 MSTORE PUSH1 0x40 PUSH1 0x0 KECCAK256 SLOAD DUP2 ISZERO SWAP1 DUP2 ISZERO DUP1 SWAP3 PUSH2 0x18F4 JUMPI JUMPDEST ISZERO PUSH2 0x18BB JUMPI PUSH1 0x0 SWAP2 PUSH2 0x1730 DUP7 PUSH2 0x20FE JUMP JUMPDEST PUSH1 0x64 SWAP5 DUP2 DUP7 SUB SWAP2 DUP7 DUP4 GT PUSH2 0x2A8 JUMPI DUP7 SWAP4 PUSH2 0x1879 JUMPI JUMPDEST POP POP DUP3 PUSH2 0x182E JUMPI JUMPDEST POP POP POP DUP1 PUSH1 0x1 SHL DUP2 DUP2 DIV PUSH1 0x2 EQ DUP3 ISZERO OR ISZERO PUSH2 0x2A8 JUMPI PUSH1 0x9 SWAP2 DUP4 PUSH2 0x1771 SWAP3 DIV SWAP1 PUSH2 0x20BE JUMP JUMPDEST SWAP3 ADD SWAP1 DUP2 SLOAD SWAP1 DUP4 DUP3 LT PUSH2 0x17EC JUMPI POP PUSH1 0x0 DUP4 DUP2 SWAP5 SWAP4 PUSH2 0x1791 DUP4 SWAP6 DUP5 SWAP6 PUSH2 0x20BE JUMP JUMPDEST SWAP1 SSTORE DUP2 DUP2 ISZERO PUSH2 0x17E3 JUMPI JUMPDEST CALLER SWAP1 CALL ISZERO PUSH2 0x17D7 JUMPI PUSH1 0x0 PUSH1 0x40 MLOAD SWAP3 DUP2 DUP5 MSTORE DUP4 ADD MSTORE PUSH32 0xE327A67B215868C73556CA1592E7658B059387029D775872B8022E5844E5BE3B PUSH1 0x40 CALLER SWAP4 LOG3 STOP JUMPDEST PUSH1 0x40 MLOAD RETURNDATASIZE PUSH1 0x0 DUP3 RETURNDATACOPY RETURNDATASIZE SWAP1 REVERT JUMPDEST POP PUSH2 0x8FC PUSH2 0x179B JUMP JUMPDEST PUSH1 0x40 MLOAD PUSH3 0x461BCD PUSH1 0xE5 SHL DUP2 MSTORE PUSH1 0x4 DUP2 ADD DUP8 SWAP1 MSTORE PUSH1 0x1E PUSH1 0x24 DUP3 ADD MSTORE PUSH32 0x496E73756666696369656E74206C697175696469747920696E20706F6F6C0000 PUSH1 0x44 DUP3 ADD MSTORE REVERT JUMPDEST SWAP1 PUSH2 0x183E DUP4 SWAP5 SWAP3 PUSH2 0x1845 SWAP5 PUSH2 0x20CB JUMP JUMPDEST DIV SWAP1 PUSH2 0x1FDE JUMP JUMPDEST SWAP1 PUSH2 0x1855 PUSH1 0xB DUP6 ADD SWAP2 DUP3 SLOAD PUSH2 0x20BE JUMP JUMPDEST SWAP1 SSTORE DUP4 PUSH1 0x0 MSTORE PUSH1 0x7 DUP6 MSTORE PUSH1 0x40 PUSH1 0x0 KECCAK256 CALLER PUSH1 0x0 MSTORE DUP6 MSTORE PUSH1 0x0 PUSH1 0x40 DUP2 KECCAK256 SSTORE DUP6 DUP3 DUP2 PUSH2 0x174D JUMP JUMPDEST DUP2 SWAP6 POP PUSH2 0x1887 SWAP1 DUP5 SWAP3 PUSH2 0x20CB JUMP JUMPDEST DIV SWAP4 PUSH2 0x1898 PUSH1 0xA DUP9 ADD SWAP2 DUP3 SLOAD PUSH2 0x20BE JUMP JUMPDEST SWAP1 SSTORE DUP7 PUSH1 0x0 MSTORE PUSH1 0x6 DUP9 MSTORE PUSH1 0x40 PUSH1 0x0 KECCAK256 CALLER PUSH1 0x0 MSTORE DUP9 MSTORE PUSH1 0x0 PUSH1 0x40 DUP2 KECCAK256 SSTORE DUP9 DUP1 PUSH2 0x1745 JUMP JUMPDEST PUSH1 0x40 MLOAD PUSH3 0x461BCD PUSH1 0xE5 SHL DUP2 MSTORE PUSH1 0x4 DUP2 ADD DUP8 SWAP1 MSTORE PUSH1 0x11 PUSH1 0x24 DUP3 ADD MSTORE PUSH17 0x139BC81CDA185C995CC81D1BC81CD95B1B PUSH1 0x7A SHL PUSH1 0x44 DUP3 ADD MSTORE PUSH1 0x64 SWAP1 REVERT JUMPDEST POP DUP1 ISZERO ISZERO PUSH2 0x171F JUMP JUMPDEST CALLVALUE PUSH2 0x12F JUMPI PUSH1 0x20 DUP1 PUSH1 0x3 NOT CALLDATASIZE ADD SLT PUSH2 0x12F JUMPI PUSH1 0x4 CALLDATALOAD DUP1 PUSH1 0x0 MSTORE PUSH1 0x0 DUP3 MSTORE PUSH1 0x40 PUSH1 0x0 KECCAK256 PUSH1 0x6 DUP2 ADD SLOAD PUSH1 0xFF DUP2 AND PUSH1 0x4 DUP2 LT ISZERO PUSH2 0x364 JUMPI PUSH1 0x2 SUB PUSH2 0x1CD2 JUMPI DUP3 PUSH1 0x0 MSTORE PUSH1 0x8 DUP5 MSTORE PUSH1 0x40 PUSH1 0x0 KECCAK256 CALLER PUSH1 0x0 MSTORE DUP5 MSTORE PUSH1 0xFF PUSH1 0x40 PUSH1 0x0 KECCAK256 SLOAD AND PUSH2 0x1C8D JUMPI PUSH1 0x9 DUP3 ADD SLOAD SWAP1 DUP2 ISZERO PUSH2 0x1C48 JUMPI PUSH1 0x8 SHR PUSH1 0xFF AND DUP1 ISZERO PUSH2 0x1C29 JUMPI DUP4 PUSH1 0x0 MSTORE PUSH1 0x6 DUP6 MSTORE PUSH1 0x40 PUSH1 0x0 KECCAK256 CALLER PUSH1 0x0 MSTORE DUP6 MSTORE PUSH1 0x40 PUSH1 0x0 KECCAK256 SLOAD SWAP1 JUMPDEST DUP1 ISZERO PUSH2 0x1C1E JUMPI PUSH1 0xA DUP5 ADD SLOAD SWAP4 JUMPDEST DUP5 ISZERO PUSH2 0x1B0E JUMPI POP POP DUP1 ISZERO PUSH2 0x1AC9 JUMPI PUSH2 0x19B9 SWAP3 SWAP2 PUSH2 0x19B4 SWAP2 PUSH2 0x20CB JUMP JUMPDEST PUSH2 0x20DE JUMP JUMPDEST DUP1 ISZERO PUSH2 0x1A84 JUMPI DUP2 PUSH1 0x0 MSTORE PUSH1 0x8 DUP4 MSTORE PUSH1 0x40 PUSH1 0x0 KECCAK256 CALLER PUSH1 0x0 MSTORE DUP4 MSTORE PUSH1 0x40 PUSH1 0x0 KECCAK256 PUSH1 0x1 PUSH1 0xFF NOT DUP3 SLOAD AND OR SWAP1 SSTORE DUP2 PUSH1 0x0 MSTORE PUSH1 0x6 DUP4 MSTORE PUSH1 0x40 PUSH1 0x0 KECCAK256 CALLER PUSH1 0x0 MSTORE DUP4 MSTORE PUSH1 0x0 PUSH1 0x40 DUP2 KECCAK256 SSTORE DUP2 PUSH1 0x0 MSTORE PUSH1 0x7 DUP4 MSTORE PUSH1 0x40 PUSH1 0x0 KECCAK256 CALLER PUSH1 0x0 MSTORE DUP4 MSTORE PUSH1 0x0 PUSH1 0x40 DUP2 KECCAK256 SSTORE PUSH1 0x0 DUP1 DUP1 DUP1 DUP5 CALLER DUP3 CALL ISZERO PUSH2 0x17D7 JUMPI PUSH1 0x40 MLOAD SWAP1 DUP2 MSTORE DUP2 PUSH32 0x3300BDB359CFB956935BCA32E9DB727413EAB1CA84341F2E36CAEA85BB796968 DUP5 CALLER SWAP4 LOG3 PUSH1 0x0 PUSH1 0x40 MLOAD SWAP3 DUP2 DUP5 MSTORE DUP4 ADD MSTORE PUSH32 0xE327A67B215868C73556CA1592E7658B059387029D775872B8022E5844E5BE3B PUSH1 0x40 CALLER SWAP4 LOG3 STOP JUMPDEST PUSH1 0x40 MLOAD PUSH3 0x461BCD PUSH1 0xE5 SHL DUP2 MSTORE PUSH1 0x4 DUP2 ADD DUP5 SWAP1 MSTORE PUSH1 0x19 PUSH1 0x24 DUP3 ADD MSTORE PUSH32 0x43616C63756C6174656420726577617264206973207A65726F00000000000000 PUSH1 0x44 DUP3 ADD MSTORE PUSH1 0x64 SWAP1 REVERT JUMPDEST PUSH1 0x40 MLOAD PUSH3 0x461BCD PUSH1 0xE5 SHL DUP2 MSTORE PUSH1 0x4 DUP2 ADD DUP7 SWAP1 MSTORE PUSH1 0x1D PUSH1 0x24 DUP3 ADD MSTORE PUSH32 0x596F7520646F206E6F74206F776E2077696E6E696E6720736861726573000000 PUSH1 0x44 DUP3 ADD MSTORE PUSH1 0x64 SWAP1 REVERT JUMPDEST SWAP2 POP SWAP3 POP DUP3 PUSH1 0x0 EQ PUSH2 0x1BFF JUMPI DUP4 PUSH1 0x0 MSTORE PUSH1 0x7 DUP6 MSTORE PUSH1 0x40 PUSH1 0x0 KECCAK256 CALLER PUSH1 0x0 MSTORE DUP6 MSTORE PUSH1 0x40 PUSH1 0x0 KECCAK256 SLOAD SWAP3 JUMPDEST ISZERO PUSH2 0x1BF5 JUMPI PUSH1 0xB ADD SLOAD SWAP2 JUMPDEST DUP1 ISZERO PUSH2 0x1BA4 JUMPI DUP3 ISZERO PUSH2 0x1B5F JUMPI PUSH2 0x1B5A SWAP3 SWAP2 PUSH2 0x19B4 SWAP2 PUSH2 0x20CB JUMP JUMPDEST PUSH2 0x19B9 JUMP JUMPDEST PUSH1 0x40 MLOAD PUSH3 0x461BCD PUSH1 0xE5 SHL DUP2 MSTORE PUSH1 0x4 DUP2 ADD DUP7 SWAP1 MSTORE PUSH1 0x1D PUSH1 0x24 DUP3 ADD MSTORE PUSH32 0x496E76616C696420706F6F6C20737461746520666F7220726566756E64000000 PUSH1 0x44 DUP3 ADD MSTORE PUSH1 0x64 SWAP1 REVERT JUMPDEST PUSH1 0x40 MLOAD PUSH3 0x461BCD PUSH1 0xE5 SHL DUP2 MSTORE PUSH1 0x4 DUP2 ADD DUP7 SWAP1 MSTORE PUSH1 0x23 PUSH1 0x24 DUP3 ADD MSTORE PUSH32 0x596F7520646F206E6F74206F776E20616E792073686172657320746F20726566 PUSH1 0x44 DUP3 ADD MSTORE PUSH3 0x1D5B99 PUSH1 0xEA SHL PUSH1 0x64 DUP3 ADD MSTORE PUSH1 0x84 SWAP1 REVERT JUMPDEST PUSH1 0xA ADD SLOAD SWAP2 PUSH2 0x1B40 JUMP JUMPDEST DUP4 PUSH1 0x0 MSTORE PUSH1 0x6 DUP6 MSTORE PUSH1 0x40 PUSH1 0x0 KECCAK256 CALLER PUSH1 0x0 MSTORE DUP6 MSTORE PUSH1 0x40 PUSH1 0x0 KECCAK256 SLOAD SWAP3 PUSH2 0x1B35 JUMP JUMPDEST PUSH1 0xB DUP5 ADD SLOAD SWAP4 PUSH2 0x1998 JUMP JUMPDEST DUP4 PUSH1 0x0 MSTORE PUSH1 0x7 DUP6 MSTORE PUSH1 0x40 PUSH1 0x0 KECCAK256 CALLER PUSH1 0x0 MSTORE DUP6 MSTORE PUSH1 0x40 PUSH1 0x0 KECCAK256 SLOAD SWAP1 PUSH2 0x198B JUMP JUMPDEST PUSH1 0x40 MLOAD PUSH3 0x461BCD PUSH1 0xE5 SHL DUP2 MSTORE PUSH1 0x4 DUP2 ADD DUP7 SWAP1 MSTORE PUSH1 0x1F PUSH1 0x24 DUP3 ADD MSTORE PUSH32 0x4E6F206C697175696469747920696E206D61726B657420746F20636C61696D00 PUSH1 0x44 DUP3 ADD MSTORE PUSH1 0x64 SWAP1 REVERT JUMPDEST PUSH1 0x40 MLOAD PUSH3 0x461BCD PUSH1 0xE5 SHL DUP2 MSTORE PUSH1 0x4 DUP2 ADD DUP6 SWAP1 MSTORE PUSH1 0x18 PUSH1 0x24 DUP3 ADD MSTORE PUSH32 0x57696E6E696E677320616C726561647920636C61696D65640000000000000000 PUSH1 0x44 DUP3 ADD MSTORE PUSH1 0x64 SWAP1 REVERT JUMPDEST PUSH1 0x40 MLOAD PUSH3 0x461BCD PUSH1 0xE5 SHL DUP2 MSTORE PUSH1 0x4 DUP2 ADD DUP6 SWAP1 MSTORE PUSH1 0x17 PUSH1 0x24 DUP3 ADD MSTORE PUSH32 0x4D61726B6574206E6F74207265736F6C76656420796574000000000000000000 PUSH1 0x44 DUP3 ADD MSTORE PUSH1 0x64 SWAP1 REVERT JUMPDEST CALLVALUE PUSH2 0x12F JUMPI PUSH1 0x40 CALLDATASIZE PUSH1 0x3 NOT ADD SLT PUSH2 0x12F JUMPI PUSH2 0x1D30 PUSH2 0x1DB5 JUMP JUMPDEST PUSH1 0x4 CALLDATALOAD PUSH1 0x0 MSTORE PUSH1 0x2 PUSH1 0x20 MSTORE PUSH1 0x40 PUSH1 0x0 KECCAK256 SWAP1 PUSH1 0x1 DUP1 PUSH1 0xA0 SHL SUB AND PUSH1 0x0 MSTORE PUSH1 0x20 MSTORE PUSH1 0x20 PUSH1 0xFF PUSH1 0x40 PUSH1 0x0 KECCAK256 SLOAD AND PUSH1 0x40 MLOAD SWAP1 ISZERO ISZERO DUP2 MSTORE RETURN JUMPDEST CALLVALUE PUSH2 0x12F JUMPI PUSH1 0x20 CALLDATASIZE PUSH1 0x3 NOT ADD SLT PUSH2 0x12F JUMPI PUSH1 0x20 SWAP1 PUSH1 0x1 PUSH1 0x1 PUSH1 0xA0 SHL SUB PUSH2 0x1D88 PUSH2 0x1D9F JUMP JUMPDEST AND PUSH1 0x0 MSTORE PUSH1 0x3 DUP3 MSTORE PUSH1 0xFF PUSH1 0x40 PUSH1 0x0 KECCAK256 SLOAD AND ISZERO ISZERO DUP2 MSTORE RETURN JUMPDEST PUSH1 0x4 CALLDATALOAD SWAP1 PUSH1 0x1 PUSH1 0x1 PUSH1 0xA0 SHL SUB DUP3 AND DUP3 SUB PUSH2 0x12F JUMPI JUMP JUMPDEST PUSH1 0x24 CALLDATALOAD SWAP1 PUSH1 0x1 PUSH1 0x1 PUSH1 0xA0 SHL SUB DUP3 AND DUP3 SUB PUSH2 0x12F JUMPI JUMP JUMPDEST PUSH1 0x40 SWAP1 PUSH1 0x3 NOT ADD SLT PUSH2 0x12F JUMPI PUSH1 0x4 CALLDATALOAD SWAP1 PUSH1 0x24 CALLDATALOAD DUP1 ISZERO ISZERO DUP2 SUB PUSH2 0x12F JUMPI SWAP1 JUMP JUMPDEST SWAP1 PUSH1 0x1F DUP1 NOT SWAP2 ADD AND DUP2 ADD SWAP1 DUP2 LT PUSH8 0xFFFFFFFFFFFFFFFF DUP3 GT OR PUSH2 0xF14 JUMPI PUSH1 0x40 MSTORE JUMP JUMPDEST DUP2 PUSH1 0x1F DUP3 ADD SLT ISZERO PUSH2 0x12F JUMPI DUP1 CALLDATALOAD SWAP1 PUSH8 0xFFFFFFFFFFFFFFFF DUP3 GT PUSH2 0xF14 JUMPI PUSH1 0x40 MLOAD SWAP3 PUSH2 0x1E41 PUSH1 0x1F DUP5 ADD PUSH1 0x1F NOT AND PUSH1 0x20 ADD DUP6 PUSH2 0x1DEA JUMP JUMPDEST DUP3 DUP5 MSTORE PUSH1 0x20 DUP4 DUP4 ADD ADD GT PUSH2 0x12F JUMPI DUP2 PUSH1 0x0 SWAP3 PUSH1 0x20 DUP1 SWAP4 ADD DUP4 DUP7 ADD CALLDATACOPY DUP4 ADD ADD MSTORE SWAP1 JUMP JUMPDEST SWAP1 PUSH1 0x1 DUP3 DUP2 SHR SWAP3 AND DUP1 ISZERO PUSH2 0x1E93 JUMPI JUMPDEST PUSH1 0x20 DUP4 LT EQ PUSH2 0x1E7D JUMPI JUMP JUMPDEST PUSH4 0x4E487B71 PUSH1 0xE0 SHL PUSH1 0x0 MSTORE PUSH1 0x22 PUSH1 0x4 MSTORE PUSH1 0x24 PUSH1 0x0 REVERT JUMPDEST SWAP2 PUSH1 0x7F AND SWAP2 PUSH2 0x1E72 JUMP JUMPDEST SWAP1 PUSH1 0x40 MLOAD SWAP2 DUP3 PUSH1 0x0 DUP3 SLOAD SWAP3 PUSH2 0x1EB1 DUP5 PUSH2 0x1E63 JUMP JUMPDEST SWAP1 DUP2 DUP5 MSTORE PUSH1 0x1 SWAP5 DUP6 DUP2 AND SWAP1 DUP2 PUSH1 0x0 EQ PUSH2 0x1F20 JUMPI POP PUSH1 0x1 EQ PUSH2 0x1EDD JUMPI JUMPDEST POP POP PUSH2 0x1EDB SWAP3 POP SUB DUP4 PUSH2 0x1DEA JUMP JUMPDEST JUMP JUMPDEST SWAP1 SWAP4 SWAP2 POP PUSH1 0x0 MSTORE PUSH1 0x20 SWAP1 DUP2 PUSH1 0x0 KECCAK256 SWAP4 PUSH1 0x0 SWAP2 JUMPDEST DUP2 DUP4 LT PUSH2 0x1F08 JUMPI POP POP PUSH2 0x1EDB SWAP4 POP DUP3 ADD ADD CODESIZE DUP1 PUSH2 0x1ECD JUMP JUMPDEST DUP6 SLOAD DUP9 DUP5 ADD DUP6 ADD MSTORE SWAP5 DUP6 ADD SWAP5 DUP8 SWAP5 POP SWAP2 DUP4 ADD SWAP2 PUSH2 0x1EF0 JUMP JUMPDEST SWAP2 POP POP PUSH2 0x1EDB SWAP5 POP PUSH1 0x20 SWAP3 POP PUSH1 0xFF NOT AND DUP3 DUP5 ADD MSTORE ISZERO ISZERO PUSH1 0x5 SHL DUP3 ADD ADD CODESIZE DUP1 PUSH2 0x1ECD JUMP JUMPDEST SWAP2 SWAP1 DUP3 MLOAD SWAP3 DUP4 DUP3 MSTORE PUSH1 0x0 JUMPDEST DUP5 DUP2 LT PUSH2 0x1F6F JUMPI POP POP DUP3 PUSH1 0x0 PUSH1 0x20 DUP1 SWAP5 SWAP6 DUP5 ADD ADD MSTORE PUSH1 0x1F DUP1 NOT SWAP2 ADD AND ADD ADD SWAP1 JUMP JUMPDEST PUSH1 0x20 DUP2 DUP4 ADD DUP2 ADD MLOAD DUP5 DUP4 ADD DUP3 ADD MSTORE ADD PUSH2 0x1F4E JUMP JUMPDEST ISZERO PUSH2 0x1F8A JUMPI JUMP JUMPDEST PUSH1 0x40 MLOAD PUSH3 0x461BCD PUSH1 0xE5 SHL DUP2 MSTORE PUSH1 0x20 PUSH1 0x4 DUP3 ADD MSTORE PUSH1 0x18 PUSH1 0x24 DUP3 ADD MSTORE PUSH32 0x4F6E6C79206F776E65722063616E2063616C6C20746869730000000000000000 PUSH1 0x44 DUP3 ADD MSTORE PUSH1 0x64 SWAP1 REVERT JUMPDEST PUSH1 0x0 NOT DUP2 EQ PUSH2 0x2A8 JUMPI PUSH1 0x1 ADD SWAP1 JUMP JUMPDEST SWAP2 SWAP1 DUP3 ADD DUP1 SWAP3 GT PUSH2 0x2A8 JUMPI JUMP JUMPDEST ISZERO PUSH2 0x1FF2 JUMPI JUMP JUMPDEST PUSH1 0x40 MLOAD PUSH3 0x461BCD PUSH1 0xE5 SHL DUP2 MSTORE PUSH1 0x20 PUSH1 0x4 DUP3 ADD MSTORE PUSH1 0x15 PUSH1 0x24 DUP3 ADD MSTORE PUSH21 0x13585C9AD95D08191BD95CC81B9BDD08195E1A5CDD PUSH1 0x5A SHL PUSH1 0x44 DUP3 ADD MSTORE PUSH1 0x64 SWAP1 REVERT JUMPDEST ISZERO PUSH2 0x2036 JUMPI JUMP JUMPDEST PUSH1 0x40 MLOAD PUSH3 0x461BCD PUSH1 0xE5 SHL DUP2 MSTORE PUSH1 0x20 PUSH1 0x4 DUP3 ADD MSTORE PUSH1 0x18 PUSH1 0x24 DUP3 ADD MSTORE PUSH32 0x4D61726B6574206973206E6F7420696E20646973707574650000000000000000 PUSH1 0x44 DUP3 ADD MSTORE PUSH1 0x64 SWAP1 REVERT JUMPDEST ISZERO PUSH2 0x2082 JUMPI JUMP JUMPDEST PUSH1 0x40 MLOAD PUSH3 0x461BCD PUSH1 0xE5 SHL DUP2 MSTORE PUSH1 0x20 PUSH1 0x4 DUP3 ADD MSTORE PUSH1 0x14 PUSH1 0x24 DUP3 ADD MSTORE PUSH20 0x4D61726B6574206973206E6F7420616374697665 PUSH1 0x60 SHL PUSH1 0x44 DUP3 ADD MSTORE PUSH1 0x64 SWAP1 REVERT JUMPDEST SWAP2 SWAP1 DUP3 SUB SWAP2 DUP3 GT PUSH2 0x2A8 JUMPI JUMP JUMPDEST DUP2 DUP2 MUL SWAP3 SWAP2 DUP2 ISZERO SWAP2 DUP5 DIV EQ OR ISZERO PUSH2 0x2A8 JUMPI JUMP JUMPDEST DUP2 ISZERO PUSH2 0x20E8 JUMPI DIV SWAP1 JUMP JUMPDEST PUSH4 0x4E487B71 PUSH1 0xE0 SHL PUSH1 0x0 MSTORE PUSH1 0x12 PUSH1 0x4 MSTORE PUSH1 0x24 PUSH1 0x0 REVERT JUMPDEST PUSH1 0x0 MSTORE PUSH1 0x0 PUSH1 0x20 MSTORE PUSH1 0x40 PUSH1 0x0 KECCAK256 PUSH1 0xA DUP2 ADD SLOAD SWAP1 DUP2 ISZERO SWAP1 DUP2 DUP1 SWAP3 PUSH2 0x2172 JUMPI JUMPDEST PUSH2 0x216A JUMPI PUSH1 0xB PUSH2 0x212E SWAP2 ADD SLOAD DUP4 PUSH2 0x1FDE JUMP JUMPDEST SWAP1 PUSH1 0x64 DUP4 MUL SWAP3 DUP4 DIV PUSH1 0x64 EQ OR ISZERO PUSH2 0x2A8 JUMPI PUSH2 0x2148 SWAP2 PUSH2 0x20DE JUMP JUMPDEST PUSH1 0x5 DUP2 LT PUSH2 0x2162 JUMPI JUMPDEST PUSH1 0x5F DUP2 GT PUSH2 0x215C JUMPI SWAP1 JUMP JUMPDEST POP PUSH1 0x5F SWAP1 JUMP JUMPDEST POP PUSH1 0x5 PUSH2 0x2151 JUMP JUMPDEST POP POP POP PUSH1 0x32 SWAP1 JUMP JUMPDEST POP PUSH1 0xB DUP2 ADD SLOAD ISZERO PUSH2 0x211C JUMP JUMPDEST PUSH1 0x0 SWAP1 DUP2 MSTORE DUP1 PUSH1 0x20 MSTORE PUSH1 0x40 DUP2 KECCAK256 PUSH1 0xA DUP2 ADD SLOAD DUP1 ISZERO SWAP2 DUP3 DUP1 SWAP4 PUSH2 0x2239 JUMPI JUMPDEST PUSH2 0x222F JUMPI PUSH1 0xB PUSH2 0x21AD SWAP2 ADD SLOAD DUP3 PUSH2 0x1FDE JUMP JUMPDEST SWAP2 PUSH1 0x64 DUP3 MUL SWAP2 DUP3 DIV PUSH1 0x64 EQ OR ISZERO PUSH2 0x221B JUMPI SWAP1 PUSH2 0x21C8 SWAP2 PUSH2 0x20DE JUMP JUMPDEST SWAP2 PUSH1 0x5 DUP4 LT PUSH2 0x2212 JUMPI JUMPDEST PUSH1 0x5F DUP4 GT PUSH2 0x2209 JUMPI JUMPDEST ISZERO PUSH2 0x21E4 JUMPI POP SWAP1 JUMP JUMPDEST SWAP1 PUSH1 0x64 SUB SWAP1 PUSH1 0x64 DUP3 GT PUSH2 0x21F5 JUMPI POP SWAP1 JUMP JUMPDEST PUSH4 0x4E487B71 PUSH1 0xE0 SHL DUP2 MSTORE PUSH1 0x11 PUSH1 0x4 MSTORE PUSH1 0x24 SWAP1 REVERT JUMPDEST PUSH1 0x5F SWAP3 POP PUSH2 0x21DB JUMP JUMPDEST PUSH1 0x5 SWAP3 POP PUSH2 0x21D2 JUMP JUMPDEST PUSH4 0x4E487B71 PUSH1 0xE0 SHL DUP4 MSTORE PUSH1 0x11 PUSH1 0x4 MSTORE PUSH1 0x24 DUP4 REVERT JUMPDEST POP POP POP POP POP PUSH1 0x32 SWAP1 JUMP JUMPDEST POP PUSH1 0xB DUP2 ADD SLOAD ISZERO PUSH2 0x219B JUMP INVALID LOG2 PUSH5 0x6970667358 0x22 SLT KECCAK256 PUSH8 0xECF3C7085E7B933E 0xD0 RETURNDATACOPY PUSH7 0xE5DA4E61D9E4AF 0xBF SWAP3 0xAF 0xE 0xE0 PUSH8 0x457A6399DAF15564 PUSH20 0x6F6C634300081400330000000000000000000000 "},"methodIdentifiers":{"addGuardian(address)":"a526d83b","buyShares(uint256,bool)":"eb7177ee","claimRewards(uint256)":"0962ef79","closeExpiredMarkets()":"4ff055b6","createMarket(string,string,uint256,string,uint256)":"905d458d","disputeMarket(uint256)":"c971b1c3","disputeVoted(uint256,address)":"08fa40f9","disputes(uint256)":"564a565d","emergencyResolveMarket(uint256,bool)":"d1cd3326","finalizeDispute(uint256)":"56989a83","getOdds(uint256,bool)":"8ff755e9","guardians(address)":"0633b14a","marketCount()":"ec979082","markets(uint256)":"b1283e77","owner()":"8da5cb5b","removeGuardian(address)":"71404156","resolveMarket(uint256,bool)":"57bde446","rewardsClaimed(uint256,address)":"9a835e91","sellShares(uint256)":"4ba8ae81","userNoShares(uint256,address)":"8878c048","userYesShares(uint256,address)":"9d536597","voteOnDispute(uint256,bool)":"a4f5df12"}}}}}